{
  "_format": "hh-sol-artifact-1",
  "contractName": "PausToken",
  "sourceName": "contracts/Token.sol",
  "abi": [
    {
      "inputs": [],
      "stateMutability": "nonpayable",
      "type": "constructor"
    },
    {
      "anonymous": false,
      "inputs": [
        {
          "indexed": true,
          "internalType": "address",
          "name": "account",
          "type": "address"
        },
        {
          "indexed": true,
          "internalType": "address",
          "name": "operator",
          "type": "address"
        },
        {
          "indexed": false,
          "internalType": "bool",
          "name": "approved",
          "type": "bool"
        }
      ],
      "name": "ApprovalForAll",
      "type": "event"
    },
    {
      "anonymous": false,
      "inputs": [
        {
          "indexed": true,
          "internalType": "bytes32",
          "name": "role",
          "type": "bytes32"
        },
        {
          "indexed": true,
          "internalType": "bytes32",
          "name": "previousAdminRole",
          "type": "bytes32"
        },
        {
          "indexed": true,
          "internalType": "bytes32",
          "name": "newAdminRole",
          "type": "bytes32"
        }
      ],
      "name": "RoleAdminChanged",
      "type": "event"
    },
    {
      "anonymous": false,
      "inputs": [
        {
          "indexed": true,
          "internalType": "bytes32",
          "name": "role",
          "type": "bytes32"
        },
        {
          "indexed": true,
          "internalType": "address",
          "name": "account",
          "type": "address"
        },
        {
          "indexed": true,
          "internalType": "address",
          "name": "sender",
          "type": "address"
        }
      ],
      "name": "RoleGranted",
      "type": "event"
    },
    {
      "anonymous": false,
      "inputs": [
        {
          "indexed": true,
          "internalType": "bytes32",
          "name": "role",
          "type": "bytes32"
        },
        {
          "indexed": true,
          "internalType": "address",
          "name": "account",
          "type": "address"
        },
        {
          "indexed": true,
          "internalType": "address",
          "name": "sender",
          "type": "address"
        }
      ],
      "name": "RoleRevoked",
      "type": "event"
    },
    {
      "anonymous": false,
      "inputs": [
        {
          "indexed": false,
          "internalType": "uint256",
          "name": "tokenId",
          "type": "uint256"
        },
        {
          "indexed": false,
          "internalType": "string",
          "name": "newTokenUri",
          "type": "string"
        }
      ],
      "name": "SetTokenURI",
      "type": "event"
    },
    {
      "anonymous": false,
      "inputs": [
        {
          "indexed": true,
          "internalType": "address",
          "name": "operator",
          "type": "address"
        },
        {
          "indexed": true,
          "internalType": "address",
          "name": "from",
          "type": "address"
        },
        {
          "indexed": true,
          "internalType": "address",
          "name": "to",
          "type": "address"
        },
        {
          "indexed": false,
          "internalType": "uint256[]",
          "name": "ids",
          "type": "uint256[]"
        },
        {
          "indexed": false,
          "internalType": "uint256[]",
          "name": "values",
          "type": "uint256[]"
        }
      ],
      "name": "TransferBatch",
      "type": "event"
    },
    {
      "anonymous": false,
      "inputs": [
        {
          "indexed": true,
          "internalType": "address",
          "name": "operator",
          "type": "address"
        },
        {
          "indexed": true,
          "internalType": "address",
          "name": "from",
          "type": "address"
        },
        {
          "indexed": true,
          "internalType": "address",
          "name": "to",
          "type": "address"
        },
        {
          "indexed": false,
          "internalType": "uint256",
          "name": "id",
          "type": "uint256"
        },
        {
          "indexed": false,
          "internalType": "uint256",
          "name": "value",
          "type": "uint256"
        }
      ],
      "name": "TransferSingle",
      "type": "event"
    },
    {
      "anonymous": false,
      "inputs": [
        {
          "indexed": false,
          "internalType": "string",
          "name": "value",
          "type": "string"
        },
        {
          "indexed": true,
          "internalType": "uint256",
          "name": "id",
          "type": "uint256"
        }
      ],
      "name": "URI",
      "type": "event"
    },
    {
      "inputs": [],
      "name": "DEFAULT_ADMIN_ROLE",
      "outputs": [
        {
          "internalType": "bytes32",
          "name": "",
          "type": "bytes32"
        }
      ],
      "stateMutability": "view",
      "type": "function"
    },
    {
      "inputs": [],
      "name": "MINTER_ROLE",
      "outputs": [
        {
          "internalType": "bytes32",
          "name": "",
          "type": "bytes32"
        }
      ],
      "stateMutability": "view",
      "type": "function"
    },
    {
      "inputs": [
        {
          "internalType": "address",
          "name": "account",
          "type": "address"
        },
        {
          "internalType": "uint256",
          "name": "id",
          "type": "uint256"
        }
      ],
      "name": "balanceOf",
      "outputs": [
        {
          "internalType": "uint256",
          "name": "",
          "type": "uint256"
        }
      ],
      "stateMutability": "view",
      "type": "function"
    },
    {
      "inputs": [
        {
          "internalType": "address[]",
          "name": "accounts",
          "type": "address[]"
        },
        {
          "internalType": "uint256[]",
          "name": "ids",
          "type": "uint256[]"
        }
      ],
      "name": "balanceOfBatch",
      "outputs": [
        {
          "internalType": "uint256[]",
          "name": "",
          "type": "uint256[]"
        }
      ],
      "stateMutability": "view",
      "type": "function"
    },
    {
      "inputs": [
        {
          "internalType": "bytes32",
          "name": "role",
          "type": "bytes32"
        }
      ],
      "name": "getRoleAdmin",
      "outputs": [
        {
          "internalType": "bytes32",
          "name": "",
          "type": "bytes32"
        }
      ],
      "stateMutability": "view",
      "type": "function"
    },
    {
      "inputs": [
        {
          "internalType": "bytes32",
          "name": "role",
          "type": "bytes32"
        },
        {
          "internalType": "address",
          "name": "account",
          "type": "address"
        }
      ],
      "name": "grantRole",
      "outputs": [],
      "stateMutability": "nonpayable",
      "type": "function"
    },
    {
      "inputs": [
        {
          "internalType": "bytes32",
          "name": "role",
          "type": "bytes32"
        },
        {
          "internalType": "address",
          "name": "account",
          "type": "address"
        }
      ],
      "name": "hasRole",
      "outputs": [
        {
          "internalType": "bool",
          "name": "",
          "type": "bool"
        }
      ],
      "stateMutability": "view",
      "type": "function"
    },
    {
      "inputs": [
        {
          "internalType": "address",
          "name": "account",
          "type": "address"
        },
        {
          "internalType": "address",
          "name": "operator",
          "type": "address"
        }
      ],
      "name": "isApprovedForAll",
      "outputs": [
        {
          "internalType": "bool",
          "name": "",
          "type": "bool"
        }
      ],
      "stateMutability": "view",
      "type": "function"
    },
    {
      "inputs": [
        {
          "internalType": "address",
          "name": "account",
          "type": "address"
        },
        {
          "internalType": "uint256",
          "name": "id",
          "type": "uint256"
        },
        {
          "internalType": "uint256",
          "name": "amount",
          "type": "uint256"
        },
        {
          "internalType": "bytes",
          "name": "data",
          "type": "bytes"
        }
      ],
      "name": "mint",
      "outputs": [],
      "stateMutability": "nonpayable",
      "type": "function"
    },
    {
      "inputs": [
        {
          "internalType": "address",
          "name": "to",
          "type": "address"
        },
        {
          "internalType": "uint256[]",
          "name": "ids",
          "type": "uint256[]"
        },
        {
          "internalType": "uint256[]",
          "name": "amounts",
          "type": "uint256[]"
        },
        {
          "internalType": "bytes",
          "name": "data",
          "type": "bytes"
        }
      ],
      "name": "mintBatch",
      "outputs": [],
      "stateMutability": "nonpayable",
      "type": "function"
    },
    {
      "inputs": [
        {
          "internalType": "address",
          "name": "account",
          "type": "address"
        },
        {
          "internalType": "uint256",
          "name": "id",
          "type": "uint256"
        }
      ],
      "name": "mintFirst",
      "outputs": [],
      "stateMutability": "nonpayable",
      "type": "function"
    },
    {
      "inputs": [
        {
          "internalType": "bytes32",
          "name": "role",
          "type": "bytes32"
        },
        {
          "internalType": "address",
          "name": "account",
          "type": "address"
        }
      ],
      "name": "renounceRole",
      "outputs": [],
      "stateMutability": "nonpayable",
      "type": "function"
    },
    {
      "inputs": [
        {
          "internalType": "bytes32",
          "name": "role",
          "type": "bytes32"
        },
        {
          "internalType": "address",
          "name": "account",
          "type": "address"
        }
      ],
      "name": "revokeRole",
      "outputs": [],
      "stateMutability": "nonpayable",
      "type": "function"
    },
    {
      "inputs": [
        {
          "internalType": "address",
          "name": "from",
          "type": "address"
        },
        {
          "internalType": "address",
          "name": "to",
          "type": "address"
        },
        {
          "internalType": "uint256[]",
          "name": "ids",
          "type": "uint256[]"
        },
        {
          "internalType": "uint256[]",
          "name": "amounts",
          "type": "uint256[]"
        },
        {
          "internalType": "bytes",
          "name": "data",
          "type": "bytes"
        }
      ],
      "name": "safeBatchTransferFrom",
      "outputs": [],
      "stateMutability": "nonpayable",
      "type": "function"
    },
    {
      "inputs": [
        {
          "internalType": "address",
          "name": "from",
          "type": "address"
        },
        {
          "internalType": "address",
          "name": "to",
          "type": "address"
        },
        {
          "internalType": "uint256",
          "name": "id",
          "type": "uint256"
        },
        {
          "internalType": "uint256",
          "name": "amount",
          "type": "uint256"
        },
        {
          "internalType": "bytes",
          "name": "data",
          "type": "bytes"
        }
      ],
      "name": "safeTransferFrom",
      "outputs": [],
      "stateMutability": "nonpayable",
      "type": "function"
    },
    {
      "inputs": [
        {
          "internalType": "address",
          "name": "operator",
          "type": "address"
        },
        {
          "internalType": "bool",
          "name": "approved",
          "type": "bool"
        }
      ],
      "name": "setApprovalForAll",
      "outputs": [],
      "stateMutability": "nonpayable",
      "type": "function"
    },
    {
      "inputs": [
        {
          "internalType": "address",
          "name": "minter",
          "type": "address"
        }
      ],
      "name": "setMinterRole",
      "outputs": [],
      "stateMutability": "nonpayable",
      "type": "function"
    },
    {
      "inputs": [
        {
          "internalType": "uint256",
          "name": "tokenId",
          "type": "uint256"
        },
        {
          "internalType": "string",
          "name": "newTokenUri",
          "type": "string"
        }
      ],
      "name": "setTokenURI",
      "outputs": [
        {
          "internalType": "bool",
          "name": "",
          "type": "bool"
        }
      ],
      "stateMutability": "nonpayable",
      "type": "function"
    },
    {
      "inputs": [
        {
          "internalType": "string",
          "name": "newuri",
          "type": "string"
        }
      ],
      "name": "setURI",
      "outputs": [],
      "stateMutability": "nonpayable",
      "type": "function"
    },
    {
      "inputs": [
        {
          "internalType": "bytes4",
          "name": "interfaceId",
          "type": "bytes4"
        }
      ],
      "name": "supportsInterface",
      "outputs": [
        {
          "internalType": "bool",
          "name": "",
          "type": "bool"
        }
      ],
      "stateMutability": "view",
      "type": "function"
    },
    {
      "inputs": [
        {
          "internalType": "uint256",
          "name": "",
          "type": "uint256"
        }
      ],
      "name": "uri",
      "outputs": [
        {
          "internalType": "string",
          "name": "",
          "type": "string"
        }
      ],
      "stateMutability": "view",
      "type": "function"
    }
  ],
  "bytecode": "0x60806040523480156200001157600080fd5b506040518060400160405280601581526020017f68747470733a2f2f697066732e696f2f697066732f00000000000000000000008152506200005981620000a760201b60201c565b506200006f6000801b33620000c360201b60201c565b620000a17f9f2df0fed2c77648de5860a4cc508cd0818c85b8b8a1ab4ceeef8d981c8956a633620000c360201b60201c565b6200033d565b8060029080519060200190620000bf92919062000228565b5050565b620000d58282620001b560201b60201c565b620001b15760016003600084815260200190815260200160002060000160008373ffffffffffffffffffffffffffffffffffffffff1673ffffffffffffffffffffffffffffffffffffffff16815260200190815260200160002060006101000a81548160ff021916908315150217905550620001566200022060201b60201c565b73ffffffffffffffffffffffffffffffffffffffff168173ffffffffffffffffffffffffffffffffffffffff16837f2f8788117e7eff1d82e926ec794901d17c78024a50270940304540a733656f0d60405160405180910390a45b5050565b60006003600084815260200190815260200160002060000160008373ffffffffffffffffffffffffffffffffffffffff1673ffffffffffffffffffffffffffffffffffffffff16815260200190815260200160002060009054906101000a900460ff16905092915050565b600033905090565b8280546200023690620002d8565b90600052602060002090601f0160209004810192826200025a5760008555620002a6565b82601f106200027557805160ff1916838001178555620002a6565b82800160010185558215620002a6579182015b82811115620002a557825182559160200191906001019062000288565b5b509050620002b59190620002b9565b5090565b5b80821115620002d4576000816000905550600101620002ba565b5090565b60006002820490506001821680620002f157607f821691505b602082108114156200030857620003076200030e565b5b50919050565b7f4e487b7100000000000000000000000000000000000000000000000000000000600052602260045260246000fd5b613d88806200034d6000396000f3fe608060405234801561001057600080fd5b50600436106101365760003560e01c80634e1273f4116100b8578063a217fddf1161007c578063a217fddf1461036b578063a22cb46514610389578063d5391393146103a5578063d547741f146103c3578063e985e9c5146103df578063f242432a1461040f57610136565b80634e1273f4146102b7578063731133e9146102e757806391d148541461030357806392c0e6af14610333578063945d12291461034f57610136565b80631f7fdffa116100ff5780631f7fdffa14610217578063248a9ca3146102335780632eb2c2d6146102635780632f2ff15d1461027f57806336568abe1461029b57610136565b8062fdd58e1461013b57806301ffc9a71461016b57806302fe53051461019b5780630e89341c146101b7578063162094c4146101e7575b600080fd5b610155600480360381019061015091906129e2565b61042b565b6040516101629190613338565b60405180910390f35b61018560048036038101906101809190612b6a565b6104f4565b6040516101929190613140565b60405180910390f35b6101b560048036038101906101b09190612bbc565b610506565b005b6101d160048036038101906101cc9190612bfd565b610520565b6040516101de9190613176565b60405180910390f35b61020160048036038101906101fc9190612c26565b6105b4565b60405161020e9190613140565b60405180910390f35b610231600480360381019061022c91906128fb565b61062f565b005b61024d60048036038101906102489190612b05565b61066c565b60405161025a919061315b565b60405180910390f35b61027d600480360381019061027891906127ad565b61068c565b005b61029960048036038101906102949190612b2e565b61072d565b005b6102b560048036038101906102b09190612b2e565b61074e565b005b6102d160048036038101906102cc9190612a99565b6107d1565b6040516102de91906130e7565b60405180910390f35b61030160048036038101906102fc9190612a1e565b610982565b005b61031d60048036038101906103189190612b2e565b6109bf565b60405161032a9190613140565b60405180910390f35b61034d600480360381019061034891906129e2565b610a2a565b005b61036960048036038101906103649190612748565b610a9b565b005b610373610ad6565b604051610380919061315b565b60405180910390f35b6103a3600480360381019061039e91906129a6565b610add565b005b6103ad610af3565b6040516103ba919061315b565b60405180910390f35b6103dd60048036038101906103d89190612b2e565b610b17565b005b6103f960048036038101906103f49190612771565b610b38565b6040516104069190613140565b60405180910390f35b6104296004803603810190610424919061286c565b610bcc565b005b60008073ffffffffffffffffffffffffffffffffffffffff168373ffffffffffffffffffffffffffffffffffffffff16141561049c576040517f08c379a0000000000000000000000000000000000000000000000000000000008152600401610493906131f8565b60405180910390fd5b60008083815260200190815260200160002060008473ffffffffffffffffffffffffffffffffffffffff1673ffffffffffffffffffffffffffffffffffffffff16815260200190815260200160002054905092915050565b60006104ff82610c6d565b9050919050565b6000801b61051381610ce7565b61051c82610cfb565b5050565b60606002805461052f906136a1565b80601f016020809104026020016040519081016040528092919081815260200182805461055b906136a1565b80156105a85780601f1061057d576101008083540402835291602001916105a8565b820191906000526020600020905b81548152906001019060200180831161058b57829003601f168201915b50505050509050919050565b60008060001b6105c381610ce7565b826004600086815260200190815260200160002090805190602001906105ea92919061242b565b507fd2d827dddfc9c9a02afc5fc68d3251684b36e213a7999ebd90a861f25df4077e848460405161061c929190613353565b60405180910390a1600191505092915050565b7f9f2df0fed2c77648de5860a4cc508cd0818c85b8b8a1ab4ceeef8d981c8956a661065981610ce7565b61066585858585610d15565b5050505050565b600060036000838152602001908152602001600020600101549050919050565b610694610f8e565b73ffffffffffffffffffffffffffffffffffffffff168573ffffffffffffffffffffffffffffffffffffffff1614806106da57506106d9856106d4610f8e565b610b38565b5b610719576040517f08c379a000000000000000000000000000000000000000000000000000000000815260040161071090613258565b60405180910390fd5b6107268585858585610f96565b5050505050565b6107368261066c565b61073f81610ce7565b6107498383611304565b505050565b610756610f8e565b73ffffffffffffffffffffffffffffffffffffffff168173ffffffffffffffffffffffffffffffffffffffff16146107c3576040517f08c379a00000000000000000000000000000000000000000000000000000000081526004016107ba90613318565b60405180910390fd5b6107cd82826113e5565b5050565b60608151835114610817576040517f08c379a000000000000000000000000000000000000000000000000000000000815260040161080e906132b8565b60405180910390fd5b6000835167ffffffffffffffff81111561085a577f4e487b7100000000000000000000000000000000000000000000000000000000600052604160045260246000fd5b6040519080825280602002602001820160405280156108885781602001602082028036833780820191505090505b50905060005b8451811015610977576109218582815181106108d3577f4e487b7100000000000000000000000000000000000000000000000000000000600052603260045260246000fd5b6020026020010151858381518110610914577f4e487b7100000000000000000000000000000000000000000000000000000000600052603260045260246000fd5b602002602001015161042b565b82828151811061095a577f4e487b7100000000000000000000000000000000000000000000000000000000600052603260045260246000fd5b6020026020010181815250508061097090613704565b905061088e565b508091505092915050565b7f9f2df0fed2c77648de5860a4cc508cd0818c85b8b8a1ab4ceeef8d981c8956a66109ac81610ce7565b6109b8858585856114c7565b5050505050565b60006003600084815260200190815260200160002060000160008373ffffffffffffffffffffffffffffffffffffffff1673ffffffffffffffffffffffffffffffffffffffff16815260200190815260200160002060009054906101000a900460ff16905092915050565b7f9f2df0fed2c77648de5860a4cc508cd0818c85b8b8a1ab4ceeef8d981c8956a6610a5481610ce7565b610a96838360016040518060400160405280600281526020017f30780000000000000000000000000000000000000000000000000000000000008152506114c7565b505050565b6000801b610aa881610ce7565b610ad27f9f2df0fed2c77648de5860a4cc508cd0818c85b8b8a1ab4ceeef8d981c8956a683611304565b5050565b6000801b81565b610aef610ae8610f8e565b8383611678565b5050565b7f9f2df0fed2c77648de5860a4cc508cd0818c85b8b8a1ab4ceeef8d981c8956a681565b610b208261066c565b610b2981610ce7565b610b3383836113e5565b505050565b6000600160008473ffffffffffffffffffffffffffffffffffffffff1673ffffffffffffffffffffffffffffffffffffffff16815260200190815260200160002060008373ffffffffffffffffffffffffffffffffffffffff1673ffffffffffffffffffffffffffffffffffffffff16815260200190815260200160002060009054906101000a900460ff16905092915050565b610bd4610f8e565b73ffffffffffffffffffffffffffffffffffffffff168573ffffffffffffffffffffffffffffffffffffffff161480610c1a5750610c1985610c14610f8e565b610b38565b5b610c59576040517f08c379a0000000000000000000000000000000000000000000000000000000008152600401610c5090613218565b60405180910390fd5b610c6685858585856117e5565b5050505050565b60007f7965db0b000000000000000000000000000000000000000000000000000000007bffffffffffffffffffffffffffffffffffffffffffffffffffffffff1916827bffffffffffffffffffffffffffffffffffffffffffffffffffffffff19161480610ce05750610cdf82611a81565b5b9050919050565b610cf881610cf3610f8e565b611b63565b50565b8060029080519060200190610d1192919061242b565b5050565b600073ffffffffffffffffffffffffffffffffffffffff168473ffffffffffffffffffffffffffffffffffffffff161415610d85576040517f08c379a0000000000000000000000000000000000000000000000000000000008152600401610d7c906132f8565b60405180910390fd5b8151835114610dc9576040517f08c379a0000000000000000000000000000000000000000000000000000000008152600401610dc0906132d8565b60405180910390fd5b6000610dd3610f8e565b9050610de481600087878787611c00565b60005b8451811015610ee957838181518110610e29577f4e487b7100000000000000000000000000000000000000000000000000000000600052603260045260246000fd5b6020026020010151600080878481518110610e6d577f4e487b7100000000000000000000000000000000000000000000000000000000600052603260045260246000fd5b6020026020010151815260200190815260200160002060008873ffffffffffffffffffffffffffffffffffffffff1673ffffffffffffffffffffffffffffffffffffffff1681526020019081526020016000206000828254610ecf9190613507565b925050819055508080610ee190613704565b915050610de7565b508473ffffffffffffffffffffffffffffffffffffffff16600073ffffffffffffffffffffffffffffffffffffffff168273ffffffffffffffffffffffffffffffffffffffff167f4a39dc06d4c0dbc64b70af90fd698a233a518aa5d07e595d983b8c0526c8f7fb8787604051610f61929190613109565b60405180910390a4610f7881600087878787611c08565b610f8781600087878787611c10565b5050505050565b600033905090565b8151835114610fda576040517f08c379a0000000000000000000000000000000000000000000000000000000008152600401610fd1906132d8565b60405180910390fd5b600073ffffffffffffffffffffffffffffffffffffffff168473ffffffffffffffffffffffffffffffffffffffff16141561104a576040517f08c379a000000000000000000000000000000000000000000000000000000000815260040161104190613238565b60405180910390fd5b6000611054610f8e565b9050611064818787878787611c00565b60005b84518110156112615760008582815181106110ab577f4e487b7100000000000000000000000000000000000000000000000000000000600052603260045260246000fd5b6020026020010151905060008583815181106110f0577f4e487b7100000000000000000000000000000000000000000000000000000000600052603260045260246000fd5b60200260200101519050600080600084815260200190815260200160002060008b73ffffffffffffffffffffffffffffffffffffffff1673ffffffffffffffffffffffffffffffffffffffff16815260200190815260200160002054905081811015611191576040517f08c379a000000000000000000000000000000000000000000000000000000000815260040161118890613278565b60405180910390fd5b81810360008085815260200190815260200160002060008c73ffffffffffffffffffffffffffffffffffffffff1673ffffffffffffffffffffffffffffffffffffffff168152602001908152602001600020819055508160008085815260200190815260200160002060008b73ffffffffffffffffffffffffffffffffffffffff1673ffffffffffffffffffffffffffffffffffffffff16815260200190815260200160002060008282546112469190613507565b925050819055505050508061125a90613704565b9050611067565b508473ffffffffffffffffffffffffffffffffffffffff168673ffffffffffffffffffffffffffffffffffffffff168273ffffffffffffffffffffffffffffffffffffffff167f4a39dc06d4c0dbc64b70af90fd698a233a518aa5d07e595d983b8c0526c8f7fb87876040516112d8929190613109565b60405180910390a46112ee818787878787611c08565b6112fc818787878787611c10565b505050505050565b61130e82826109bf565b6113e15760016003600084815260200190815260200160002060000160008373ffffffffffffffffffffffffffffffffffffffff1673ffffffffffffffffffffffffffffffffffffffff16815260200190815260200160002060006101000a81548160ff021916908315150217905550611386610f8e565b73ffffffffffffffffffffffffffffffffffffffff168173ffffffffffffffffffffffffffffffffffffffff16837f2f8788117e7eff1d82e926ec794901d17c78024a50270940304540a733656f0d60405160405180910390a45b5050565b6113ef82826109bf565b156114c35760006003600084815260200190815260200160002060000160008373ffffffffffffffffffffffffffffffffffffffff1673ffffffffffffffffffffffffffffffffffffffff16815260200190815260200160002060006101000a81548160ff021916908315150217905550611468610f8e565b73ffffffffffffffffffffffffffffffffffffffff168173ffffffffffffffffffffffffffffffffffffffff16837ff6391f5c32d9c69d2a47ea670b442974b53935d1edc7fd64eb21e047a839171b60405160405180910390a45b5050565b600073ffffffffffffffffffffffffffffffffffffffff168473ffffffffffffffffffffffffffffffffffffffff161415611537576040517f08c379a000000000000000000000000000000000000000000000000000000000815260040161152e906132f8565b60405180910390fd5b6000611541610f8e565b9050600061154e85611df7565b9050600061155b85611df7565b905061156c83600089858589611c00565b8460008088815260200190815260200160002060008973ffffffffffffffffffffffffffffffffffffffff1673ffffffffffffffffffffffffffffffffffffffff16815260200190815260200160002060008282546115cb9190613507565b925050819055508673ffffffffffffffffffffffffffffffffffffffff16600073ffffffffffffffffffffffffffffffffffffffff168473ffffffffffffffffffffffffffffffffffffffff167fc3d58168c5ae7397731d063d5bbf3d657854427343f4c083240f7aacaa2d0f628989604051611649929190613383565b60405180910390a461166083600089858589611c08565b61166f83600089898989611ebd565b50505050505050565b8173ffffffffffffffffffffffffffffffffffffffff168373ffffffffffffffffffffffffffffffffffffffff1614156116e7576040517f08c379a00000000000000000000000000000000000000000000000000000000081526004016116de90613298565b60405180910390fd5b80600160008573ffffffffffffffffffffffffffffffffffffffff1673ffffffffffffffffffffffffffffffffffffffff16815260200190815260200160002060008473ffffffffffffffffffffffffffffffffffffffff1673ffffffffffffffffffffffffffffffffffffffff16815260200190815260200160002060006101000a81548160ff0219169083151502179055508173ffffffffffffffffffffffffffffffffffffffff168373ffffffffffffffffffffffffffffffffffffffff167f17307eab39ab6107e8899845ad3d59bd9653f200f220920489ca2b5937696c31836040516117d89190613140565b60405180910390a3505050565b600073ffffffffffffffffffffffffffffffffffffffff168473ffffffffffffffffffffffffffffffffffffffff161415611855576040517f08c379a000000000000000000000000000000000000000000000000000000000815260040161184c90613238565b60405180910390fd5b600061185f610f8e565b9050600061186c85611df7565b9050600061187985611df7565b9050611889838989858589611c00565b600080600088815260200190815260200160002060008a73ffffffffffffffffffffffffffffffffffffffff1673ffffffffffffffffffffffffffffffffffffffff16815260200190815260200160002054905085811015611920576040517f08c379a000000000000000000000000000000000000000000000000000000000815260040161191790613278565b60405180910390fd5b85810360008089815260200190815260200160002060008b73ffffffffffffffffffffffffffffffffffffffff1673ffffffffffffffffffffffffffffffffffffffff168152602001908152602001600020819055508560008089815260200190815260200160002060008a73ffffffffffffffffffffffffffffffffffffffff1673ffffffffffffffffffffffffffffffffffffffff16815260200190815260200160002060008282546119d59190613507565b925050819055508773ffffffffffffffffffffffffffffffffffffffff168973ffffffffffffffffffffffffffffffffffffffff168573ffffffffffffffffffffffffffffffffffffffff167fc3d58168c5ae7397731d063d5bbf3d657854427343f4c083240f7aacaa2d0f628a8a604051611a52929190613383565b60405180910390a4611a68848a8a86868a611c08565b611a76848a8a8a8a8a611ebd565b505050505050505050565b60007fd9b67a26000000000000000000000000000000000000000000000000000000007bffffffffffffffffffffffffffffffffffffffffffffffffffffffff1916827bffffffffffffffffffffffffffffffffffffffffffffffffffffffff19161480611b4c57507f0e89341c000000000000000000000000000000000000000000000000000000007bffffffffffffffffffffffffffffffffffffffffffffffffffffffff1916827bffffffffffffffffffffffffffffffffffffffffffffffffffffffff1916145b80611b5c5750611b5b826120a4565b5b9050919050565b611b6d82826109bf565b611bfc57611b928173ffffffffffffffffffffffffffffffffffffffff16601461210e565b611ba08360001c602061210e565b604051602001611bb1929190612feb565b6040516020818303038152906040526040517f08c379a0000000000000000000000000000000000000000000000000000000008152600401611bf39190613176565b60405180910390fd5b5050565b505050505050565b505050505050565b611c2f8473ffffffffffffffffffffffffffffffffffffffff16612408565b15611def578373ffffffffffffffffffffffffffffffffffffffff1663bc197c8187878686866040518663ffffffff1660e01b8152600401611c75959493929190613025565b602060405180830381600087803b158015611c8f57600080fd5b505af1925050508015611cc057506040513d601f19601f82011682018060405250810190611cbd9190612b93565b60015b611d6657611ccc6137da565b806308c379a01415611d295750611ce1613c49565b80611cec5750611d2b565b806040517f08c379a0000000000000000000000000000000000000000000000000000000008152600401611d209190613176565b60405180910390fd5b505b6040517f08c379a0000000000000000000000000000000000000000000000000000000008152600401611d5d90613198565b60405180910390fd5b63bc197c8160e01b7bffffffffffffffffffffffffffffffffffffffffffffffffffffffff1916817bffffffffffffffffffffffffffffffffffffffffffffffffffffffff191614611ded576040517f08c379a0000000000000000000000000000000000000000000000000000000008152600401611de4906131d8565b60405180910390fd5b505b505050505050565b60606000600167ffffffffffffffff811115611e3c577f4e487b7100000000000000000000000000000000000000000000000000000000600052604160045260246000fd5b604051908082528060200260200182016040528015611e6a5781602001602082028036833780820191505090505b5090508281600081518110611ea8577f4e487b7100000000000000000000000000000000000000000000000000000000600052603260045260246000fd5b60200260200101818152505080915050919050565b611edc8473ffffffffffffffffffffffffffffffffffffffff16612408565b1561209c578373ffffffffffffffffffffffffffffffffffffffff1663f23a6e6187878686866040518663ffffffff1660e01b8152600401611f2295949392919061308d565b602060405180830381600087803b158015611f3c57600080fd5b505af1925050508015611f6d57506040513d601f19601f82011682018060405250810190611f6a9190612b93565b60015b61201357611f796137da565b806308c379a01415611fd65750611f8e613c49565b80611f995750611fd8565b806040517f08c379a0000000000000000000000000000000000000000000000000000000008152600401611fcd9190613176565b60405180910390fd5b505b6040517f08c379a000000000000000000000000000000000000000000000000000000000815260040161200a90613198565b60405180910390fd5b63f23a6e6160e01b7bffffffffffffffffffffffffffffffffffffffffffffffffffffffff1916817bffffffffffffffffffffffffffffffffffffffffffffffffffffffff19161461209a576040517f08c379a0000000000000000000000000000000000000000000000000000000008152600401612091906131d8565b60405180910390fd5b505b505050505050565b60007f01ffc9a7000000000000000000000000000000000000000000000000000000007bffffffffffffffffffffffffffffffffffffffffffffffffffffffff1916827bffffffffffffffffffffffffffffffffffffffffffffffffffffffff1916149050919050565b606060006002836002612121919061355d565b61212b9190613507565b67ffffffffffffffff81111561216a577f4e487b7100000000000000000000000000000000000000000000000000000000600052604160045260246000fd5b6040519080825280601f01601f19166020018201604052801561219c5781602001600182028036833780820191505090505b5090507f3000000000000000000000000000000000000000000000000000000000000000816000815181106121fa577f4e487b7100000000000000000000000000000000000000000000000000000000600052603260045260246000fd5b60200101907effffffffffffffffffffffffffffffffffffffffffffffffffffffffffffff1916908160001a9053507f780000000000000000000000000000000000000000000000000000000000000081600181518110612284577f4e487b7100000000000000000000000000000000000000000000000000000000600052603260045260246000fd5b60200101907effffffffffffffffffffffffffffffffffffffffffffffffffffffffffffff1916908160001a905350600060018460026122c4919061355d565b6122ce9190613507565b90505b60018111156123ba577f3031323334353637383961626364656600000000000000000000000000000000600f861660108110612336577f4e487b7100000000000000000000000000000000000000000000000000000000600052603260045260246000fd5b1a60f81b828281518110612373577f4e487b7100000000000000000000000000000000000000000000000000000000600052603260045260246000fd5b60200101907effffffffffffffffffffffffffffffffffffffffffffffffffffffffffffff1916908160001a905350600485901c9450806123b390613677565b90506122d1565b50600084146123fe576040517f08c379a00000000000000000000000000000000000000000000000000000000081526004016123f5906131b8565b60405180910390fd5b8091505092915050565b6000808273ffffffffffffffffffffffffffffffffffffffff163b119050919050565b828054612437906136a1565b90600052602060002090601f01602090048101928261245957600085556124a0565b82601f1061247257805160ff19168380011785556124a0565b828001600101855582156124a0579182015b8281111561249f578251825591602001919060010190612484565b5b5090506124ad91906124b1565b5090565b5b808211156124ca5760008160009055506001016124b2565b5090565b60006124e16124dc846133d1565b6133ac565b9050808382526020820190508285602086028201111561250057600080fd5b60005b8581101561253057816125168882612622565b845260208401935060208301925050600181019050612503565b5050509392505050565b600061254d612548846133fd565b6133ac565b9050808382526020820190508285602086028201111561256c57600080fd5b60005b8581101561259c57816125828882612733565b84526020840193506020830192505060018101905061256f565b5050509392505050565b60006125b96125b484613429565b6133ac565b9050828152602081018484840111156125d157600080fd5b6125dc848285613635565b509392505050565b60006125f76125f28461345a565b6133ac565b90508281526020810184848401111561260f57600080fd5b61261a848285613635565b509392505050565b60008135905061263181613cdf565b92915050565b600082601f83011261264857600080fd5b81356126588482602086016124ce565b91505092915050565b600082601f83011261267257600080fd5b813561268284826020860161253a565b91505092915050565b60008135905061269a81613cf6565b92915050565b6000813590506126af81613d0d565b92915050565b6000813590506126c481613d24565b92915050565b6000815190506126d981613d24565b92915050565b600082601f8301126126f057600080fd5b81356127008482602086016125a6565b91505092915050565b600082601f83011261271a57600080fd5b813561272a8482602086016125e4565b91505092915050565b60008135905061274281613d3b565b92915050565b60006020828403121561275a57600080fd5b600061276884828501612622565b91505092915050565b6000806040838503121561278457600080fd5b600061279285828601612622565b92505060206127a385828601612622565b9150509250929050565b600080600080600060a086880312156127c557600080fd5b60006127d388828901612622565b95505060206127e488828901612622565b945050604086013567ffffffffffffffff81111561280157600080fd5b61280d88828901612661565b935050606086013567ffffffffffffffff81111561282a57600080fd5b61283688828901612661565b925050608086013567ffffffffffffffff81111561285357600080fd5b61285f888289016126df565b9150509295509295909350565b600080600080600060a0868803121561288457600080fd5b600061289288828901612622565b95505060206128a388828901612622565b94505060406128b488828901612733565b93505060606128c588828901612733565b925050608086013567ffffffffffffffff8111156128e257600080fd5b6128ee888289016126df565b9150509295509295909350565b6000806000806080858703121561291157600080fd5b600061291f87828801612622565b945050602085013567ffffffffffffffff81111561293c57600080fd5b61294887828801612661565b935050604085013567ffffffffffffffff81111561296557600080fd5b61297187828801612661565b925050606085013567ffffffffffffffff81111561298e57600080fd5b61299a878288016126df565b91505092959194509250565b600080604083850312156129b957600080fd5b60006129c785828601612622565b92505060206129d88582860161268b565b9150509250929050565b600080604083850312156129f557600080fd5b6000612a0385828601612622565b9250506020612a1485828601612733565b9150509250929050565b60008060008060808587031215612a3457600080fd5b6000612a4287828801612622565b9450506020612a5387828801612733565b9350506040612a6487828801612733565b925050606085013567ffffffffffffffff811115612a8157600080fd5b612a8d878288016126df565b91505092959194509250565b60008060408385031215612aac57600080fd5b600083013567ffffffffffffffff811115612ac657600080fd5b612ad285828601612637565b925050602083013567ffffffffffffffff811115612aef57600080fd5b612afb85828601612661565b9150509250929050565b600060208284031215612b1757600080fd5b6000612b25848285016126a0565b91505092915050565b60008060408385031215612b4157600080fd5b6000612b4f858286016126a0565b9250506020612b6085828601612622565b9150509250929050565b600060208284031215612b7c57600080fd5b6000612b8a848285016126b5565b91505092915050565b600060208284031215612ba557600080fd5b6000612bb3848285016126ca565b91505092915050565b600060208284031215612bce57600080fd5b600082013567ffffffffffffffff811115612be857600080fd5b612bf484828501612709565b91505092915050565b600060208284031215612c0f57600080fd5b6000612c1d84828501612733565b91505092915050565b60008060408385031215612c3957600080fd5b6000612c4785828601612733565b925050602083013567ffffffffffffffff811115612c6457600080fd5b612c7085828601612709565b9150509250929050565b6000612c868383612fcd565b60208301905092915050565b612c9b816135b7565b82525050565b6000612cac8261349b565b612cb681856134c9565b9350612cc18361348b565b8060005b83811015612cf2578151612cd98882612c7a565b9750612ce4836134bc565b925050600181019050612cc5565b5085935050505092915050565b612d08816135c9565b82525050565b612d17816135d5565b82525050565b6000612d28826134a6565b612d3281856134da565b9350612d42818560208601613644565b612d4b816137fc565b840191505092915050565b6000612d61826134b1565b612d6b81856134eb565b9350612d7b818560208601613644565b612d84816137fc565b840191505092915050565b6000612d9a826134b1565b612da481856134fc565b9350612db4818560208601613644565b80840191505092915050565b6000612dcd6034836134eb565b9150612dd88261381a565b604082019050919050565b6000612df06020836134eb565b9150612dfb82613869565b602082019050919050565b6000612e136028836134eb565b9150612e1e82613892565b604082019050919050565b6000612e36602b836134eb565b9150612e41826138e1565b604082019050919050565b6000612e596029836134eb565b9150612e6482613930565b604082019050919050565b6000612e7c6025836134eb565b9150612e878261397f565b604082019050919050565b6000612e9f6032836134eb565b9150612eaa826139ce565b604082019050919050565b6000612ec2602a836134eb565b9150612ecd82613a1d565b604082019050919050565b6000612ee56017836134fc565b9150612ef082613a6c565b601782019050919050565b6000612f086029836134eb565b9150612f1382613a95565b604082019050919050565b6000612f2b6029836134eb565b9150612f3682613ae4565b604082019050919050565b6000612f4e6028836134eb565b9150612f5982613b33565b604082019050919050565b6000612f716021836134eb565b9150612f7c82613b82565b604082019050919050565b6000612f946011836134fc565b9150612f9f82613bd1565b601182019050919050565b6000612fb7602f836134eb565b9150612fc282613bfa565b604082019050919050565b612fd68161362b565b82525050565b612fe58161362b565b82525050565b6000612ff682612ed8565b91506130028285612d8f565b915061300d82612f87565b91506130198284612d8f565b91508190509392505050565b600060a08201905061303a6000830188612c92565b6130476020830187612c92565b81810360408301526130598186612ca1565b9050818103606083015261306d8185612ca1565b905081810360808301526130818184612d1d565b90509695505050505050565b600060a0820190506130a26000830188612c92565b6130af6020830187612c92565b6130bc6040830186612fdc565b6130c96060830185612fdc565b81810360808301526130db8184612d1d565b90509695505050505050565b600060208201905081810360008301526131018184612ca1565b905092915050565b600060408201905081810360008301526131238185612ca1565b905081810360208301526131378184612ca1565b90509392505050565b60006020820190506131556000830184612cff565b92915050565b60006020820190506131706000830184612d0e565b92915050565b600060208201905081810360008301526131908184612d56565b905092915050565b600060208201905081810360008301526131b181612dc0565b9050919050565b600060208201905081810360008301526131d181612de3565b9050919050565b600060208201905081810360008301526131f181612e06565b9050919050565b6000602082019050818103600083015261321181612e29565b9050919050565b6000602082019050818103600083015261323181612e4c565b9050919050565b6000602082019050818103600083015261325181612e6f565b9050919050565b6000602082019050818103600083015261327181612e92565b9050919050565b6000602082019050818103600083015261329181612eb5565b9050919050565b600060208201905081810360008301526132b181612efb565b9050919050565b600060208201905081810360008301526132d181612f1e565b9050919050565b600060208201905081810360008301526132f181612f41565b9050919050565b6000602082019050818103600083015261331181612f64565b9050919050565b6000602082019050818103600083015261333181612faa565b9050919050565b600060208201905061334d6000830184612fdc565b92915050565b60006040820190506133686000830185612fdc565b818103602083015261337a8184612d56565b90509392505050565b60006040820190506133986000830185612fdc565b6133a56020830184612fdc565b9392505050565b60006133b66133c7565b90506133c282826136d3565b919050565b6000604051905090565b600067ffffffffffffffff8211156133ec576133eb6137ab565b5b602082029050602081019050919050565b600067ffffffffffffffff821115613418576134176137ab565b5b602082029050602081019050919050565b600067ffffffffffffffff821115613444576134436137ab565b5b61344d826137fc565b9050602081019050919050565b600067ffffffffffffffff821115613475576134746137ab565b5b61347e826137fc565b9050602081019050919050565b6000819050602082019050919050565b600081519050919050565b600081519050919050565b600081519050919050565b6000602082019050919050565b600082825260208201905092915050565b600082825260208201905092915050565b600082825260208201905092915050565b600081905092915050565b60006135128261362b565b915061351d8361362b565b9250827fffffffffffffffffffffffffffffffffffffffffffffffffffffffffffffffff038211156135525761355161374d565b5b828201905092915050565b60006135688261362b565b91506135738361362b565b9250817fffffffffffffffffffffffffffffffffffffffffffffffffffffffffffffffff04831182151516156135ac576135ab61374d565b5b828202905092915050565b60006135c28261360b565b9050919050565b60008115159050919050565b6000819050919050565b60007fffffffff0000000000000000000000000000000000000000000000000000000082169050919050565b600073ffffffffffffffffffffffffffffffffffffffff82169050919050565b6000819050919050565b82818337600083830152505050565b60005b83811015613662578082015181840152602081019050613647565b83811115613671576000848401525b50505050565b60006136828261362b565b915060008214156136965761369561374d565b5b600182039050919050565b600060028204905060018216806136b957607f821691505b602082108114156136cd576136cc61377c565b5b50919050565b6136dc826137fc565b810181811067ffffffffffffffff821117156136fb576136fa6137ab565b5b80604052505050565b600061370f8261362b565b91507fffffffffffffffffffffffffffffffffffffffffffffffffffffffffffffffff8214156137425761374161374d565b5b600182019050919050565b7f4e487b7100000000000000000000000000000000000000000000000000000000600052601160045260246000fd5b7f4e487b7100000000000000000000000000000000000000000000000000000000600052602260045260246000fd5b7f4e487b7100000000000000000000000000000000000000000000000000000000600052604160045260246000fd5b600060033d11156137f95760046000803e6137f660005161380d565b90505b90565b6000601f19601f8301169050919050565b60008160e01c9050919050565b7f455243313135353a207472616e7366657220746f206e6f6e204552433131353560008201527f526563656976657220696d706c656d656e746572000000000000000000000000602082015250565b7f537472696e67733a20686578206c656e67746820696e73756666696369656e74600082015250565b7f455243313135353a204552433131353552656365697665722072656a6563746560008201527f6420746f6b656e73000000000000000000000000000000000000000000000000602082015250565b7f455243313135353a2062616c616e636520717565727920666f7220746865207a60008201527f65726f2061646472657373000000000000000000000000000000000000000000602082015250565b7f455243313135353a2063616c6c6572206973206e6f74206f776e6572206e6f7260008201527f20617070726f7665640000000000000000000000000000000000000000000000602082015250565b7f455243313135353a207472616e7366657220746f20746865207a65726f20616460008201527f6472657373000000000000000000000000000000000000000000000000000000602082015250565b7f455243313135353a207472616e736665722063616c6c6572206973206e6f742060008201527f6f776e6572206e6f7220617070726f7665640000000000000000000000000000602082015250565b7f455243313135353a20696e73756666696369656e742062616c616e636520666f60008201527f72207472616e7366657200000000000000000000000000000000000000000000602082015250565b7f416363657373436f6e74726f6c3a206163636f756e7420000000000000000000600082015250565b7f455243313135353a2073657474696e6720617070726f76616c2073746174757360008201527f20666f722073656c660000000000000000000000000000000000000000000000602082015250565b7f455243313135353a206163636f756e747320616e6420696473206c656e67746860008201527f206d69736d617463680000000000000000000000000000000000000000000000602082015250565b7f455243313135353a2069647320616e6420616d6f756e7473206c656e6774682060008201527f6d69736d61746368000000000000000000000000000000000000000000000000602082015250565b7f455243313135353a206d696e7420746f20746865207a65726f2061646472657360008201527f7300000000000000000000000000000000000000000000000000000000000000602082015250565b7f206973206d697373696e6720726f6c6520000000000000000000000000000000600082015250565b7f416363657373436f6e74726f6c3a2063616e206f6e6c792072656e6f756e636560008201527f20726f6c657320666f722073656c660000000000000000000000000000000000602082015250565b600060443d1015613c5957613cdc565b613c616133c7565b60043d036004823e80513d602482011167ffffffffffffffff82111715613c89575050613cdc565b808201805167ffffffffffffffff811115613ca75750505050613cdc565b80602083010160043d038501811115613cc4575050505050613cdc565b613cd3826020018501866136d3565b82955050505050505b90565b613ce8816135b7565b8114613cf357600080fd5b50565b613cff816135c9565b8114613d0a57600080fd5b50565b613d16816135d5565b8114613d2157600080fd5b50565b613d2d816135df565b8114613d3857600080fd5b50565b613d448161362b565b8114613d4f57600080fd5b5056fea2646970667358221220a2a4666b002840b5df4f7d1753ba43685879524cc27c655e45f125216be1e07f64736f6c63430008040033",
  "linkReferences": {},
  "deployedLinkReferences": {}
}