{
  "_format": "hh-sol-artifact-1",
  "contractName": "PausToken",
  "sourceName": "contracts/Token.sol",
  "abi": [
    {
      "inputs": [],
      "stateMutability": "nonpayable",
      "type": "constructor"
    },
    {
      "anonymous": false,
      "inputs": [
        {
          "indexed": true,
          "internalType": "address",
          "name": "account",
          "type": "address"
        },
        {
          "indexed": true,
          "internalType": "address",
          "name": "operator",
          "type": "address"
        },
        {
          "indexed": false,
          "internalType": "bool",
          "name": "approved",
          "type": "bool"
        }
      ],
      "name": "ApprovalForAll",
      "type": "event"
    },
    {
      "anonymous": false,
      "inputs": [
        {
          "indexed": true,
          "internalType": "bytes32",
          "name": "role",
          "type": "bytes32"
        },
        {
          "indexed": true,
          "internalType": "bytes32",
          "name": "previousAdminRole",
          "type": "bytes32"
        },
        {
          "indexed": true,
          "internalType": "bytes32",
          "name": "newAdminRole",
          "type": "bytes32"
        }
      ],
      "name": "RoleAdminChanged",
      "type": "event"
    },
    {
      "anonymous": false,
      "inputs": [
        {
          "indexed": true,
          "internalType": "bytes32",
          "name": "role",
          "type": "bytes32"
        },
        {
          "indexed": true,
          "internalType": "address",
          "name": "account",
          "type": "address"
        },
        {
          "indexed": true,
          "internalType": "address",
          "name": "sender",
          "type": "address"
        }
      ],
      "name": "RoleGranted",
      "type": "event"
    },
    {
      "anonymous": false,
      "inputs": [
        {
          "indexed": true,
          "internalType": "bytes32",
          "name": "role",
          "type": "bytes32"
        },
        {
          "indexed": true,
          "internalType": "address",
          "name": "account",
          "type": "address"
        },
        {
          "indexed": true,
          "internalType": "address",
          "name": "sender",
          "type": "address"
        }
      ],
      "name": "RoleRevoked",
      "type": "event"
    },
    {
      "anonymous": false,
      "inputs": [
        {
          "indexed": false,
          "internalType": "uint256",
          "name": "tokenId",
          "type": "uint256"
        },
        {
          "indexed": false,
          "internalType": "string",
          "name": "newTokenUri",
          "type": "string"
        }
      ],
      "name": "SetTokenURI",
      "type": "event"
    },
    {
      "anonymous": false,
      "inputs": [
        {
          "indexed": true,
          "internalType": "address",
          "name": "operator",
          "type": "address"
        },
        {
          "indexed": true,
          "internalType": "address",
          "name": "from",
          "type": "address"
        },
        {
          "indexed": true,
          "internalType": "address",
          "name": "to",
          "type": "address"
        },
        {
          "indexed": false,
          "internalType": "uint256[]",
          "name": "ids",
          "type": "uint256[]"
        },
        {
          "indexed": false,
          "internalType": "uint256[]",
          "name": "values",
          "type": "uint256[]"
        }
      ],
      "name": "TransferBatch",
      "type": "event"
    },
    {
      "anonymous": false,
      "inputs": [
        {
          "indexed": true,
          "internalType": "address",
          "name": "operator",
          "type": "address"
        },
        {
          "indexed": true,
          "internalType": "address",
          "name": "from",
          "type": "address"
        },
        {
          "indexed": true,
          "internalType": "address",
          "name": "to",
          "type": "address"
        },
        {
          "indexed": false,
          "internalType": "uint256",
          "name": "id",
          "type": "uint256"
        },
        {
          "indexed": false,
          "internalType": "uint256",
          "name": "value",
          "type": "uint256"
        }
      ],
      "name": "TransferSingle",
      "type": "event"
    },
    {
      "anonymous": false,
      "inputs": [
        {
          "indexed": false,
          "internalType": "string",
          "name": "value",
          "type": "string"
        },
        {
          "indexed": true,
          "internalType": "uint256",
          "name": "id",
          "type": "uint256"
        }
      ],
      "name": "URI",
      "type": "event"
    },
    {
      "inputs": [],
      "name": "DEFAULT_ADMIN_ROLE",
      "outputs": [
        {
          "internalType": "bytes32",
          "name": "",
          "type": "bytes32"
        }
      ],
      "stateMutability": "view",
      "type": "function"
    },
    {
      "inputs": [],
      "name": "MINTER_ROLE",
      "outputs": [
        {
          "internalType": "bytes32",
          "name": "",
          "type": "bytes32"
        }
      ],
      "stateMutability": "view",
      "type": "function"
    },
    {
      "inputs": [
        {
          "internalType": "address",
          "name": "account",
          "type": "address"
        },
        {
          "internalType": "uint256",
          "name": "id",
          "type": "uint256"
        }
      ],
      "name": "balanceOf",
      "outputs": [
        {
          "internalType": "uint256",
          "name": "",
          "type": "uint256"
        }
      ],
      "stateMutability": "view",
      "type": "function"
    },
    {
      "inputs": [
        {
          "internalType": "address[]",
          "name": "accounts",
          "type": "address[]"
        },
        {
          "internalType": "uint256[]",
          "name": "ids",
          "type": "uint256[]"
        }
      ],
      "name": "balanceOfBatch",
      "outputs": [
        {
          "internalType": "uint256[]",
          "name": "",
          "type": "uint256[]"
        }
      ],
      "stateMutability": "view",
      "type": "function"
    },
    {
      "inputs": [
        {
          "internalType": "bytes32",
          "name": "role",
          "type": "bytes32"
        }
      ],
      "name": "getRoleAdmin",
      "outputs": [
        {
          "internalType": "bytes32",
          "name": "",
          "type": "bytes32"
        }
      ],
      "stateMutability": "view",
      "type": "function"
    },
    {
      "inputs": [
        {
          "internalType": "bytes32",
          "name": "role",
          "type": "bytes32"
        },
        {
          "internalType": "address",
          "name": "account",
          "type": "address"
        }
      ],
      "name": "grantRole",
      "outputs": [],
      "stateMutability": "nonpayable",
      "type": "function"
    },
    {
      "inputs": [
        {
          "internalType": "bytes32",
          "name": "role",
          "type": "bytes32"
        },
        {
          "internalType": "address",
          "name": "account",
          "type": "address"
        }
      ],
      "name": "hasRole",
      "outputs": [
        {
          "internalType": "bool",
          "name": "",
          "type": "bool"
        }
      ],
      "stateMutability": "view",
      "type": "function"
    },
    {
      "inputs": [
        {
          "internalType": "address",
          "name": "account",
          "type": "address"
        },
        {
          "internalType": "address",
          "name": "operator",
          "type": "address"
        }
      ],
      "name": "isApprovedForAll",
      "outputs": [
        {
          "internalType": "bool",
          "name": "",
          "type": "bool"
        }
      ],
      "stateMutability": "view",
      "type": "function"
    },
    {
      "inputs": [
        {
          "internalType": "address",
          "name": "_account",
          "type": "address"
        },
        {
          "internalType": "uint256",
          "name": "_id",
          "type": "uint256"
        },
        {
          "internalType": "uint256",
          "name": "_amount",
          "type": "uint256"
        },
        {
          "internalType": "bytes",
          "name": "_data",
          "type": "bytes"
        }
      ],
      "name": "mint",
      "outputs": [],
      "stateMutability": "nonpayable",
      "type": "function"
    },
    {
      "inputs": [
        {
          "internalType": "address",
          "name": "_to",
          "type": "address"
        },
        {
          "internalType": "uint256[]",
          "name": "_ids",
          "type": "uint256[]"
        },
        {
          "internalType": "uint256[]",
          "name": "_amounts",
          "type": "uint256[]"
        },
        {
          "internalType": "bytes",
          "name": "_data",
          "type": "bytes"
        }
      ],
      "name": "mintBatch",
      "outputs": [],
      "stateMutability": "nonpayable",
      "type": "function"
    },
    {
      "inputs": [
        {
          "internalType": "address",
          "name": "_account",
          "type": "address"
        },
        {
          "internalType": "uint256",
          "name": "_id",
          "type": "uint256"
        },
        {
          "internalType": "string",
          "name": "_newTokenUri",
          "type": "string"
        }
      ],
      "name": "mintFirst",
      "outputs": [],
      "stateMutability": "nonpayable",
      "type": "function"
    },
    {
      "inputs": [
        {
          "internalType": "bytes32",
          "name": "role",
          "type": "bytes32"
        },
        {
          "internalType": "address",
          "name": "account",
          "type": "address"
        }
      ],
      "name": "renounceRole",
      "outputs": [],
      "stateMutability": "nonpayable",
      "type": "function"
    },
    {
      "inputs": [
        {
          "internalType": "bytes32",
          "name": "role",
          "type": "bytes32"
        },
        {
          "internalType": "address",
          "name": "account",
          "type": "address"
        }
      ],
      "name": "revokeRole",
      "outputs": [],
      "stateMutability": "nonpayable",
      "type": "function"
    },
    {
      "inputs": [
        {
          "internalType": "address",
          "name": "from",
          "type": "address"
        },
        {
          "internalType": "address",
          "name": "to",
          "type": "address"
        },
        {
          "internalType": "uint256[]",
          "name": "ids",
          "type": "uint256[]"
        },
        {
          "internalType": "uint256[]",
          "name": "amounts",
          "type": "uint256[]"
        },
        {
          "internalType": "bytes",
          "name": "data",
          "type": "bytes"
        }
      ],
      "name": "safeBatchTransferFrom",
      "outputs": [],
      "stateMutability": "nonpayable",
      "type": "function"
    },
    {
      "inputs": [
        {
          "internalType": "address",
          "name": "from",
          "type": "address"
        },
        {
          "internalType": "address",
          "name": "to",
          "type": "address"
        },
        {
          "internalType": "uint256",
          "name": "id",
          "type": "uint256"
        },
        {
          "internalType": "uint256",
          "name": "amount",
          "type": "uint256"
        },
        {
          "internalType": "bytes",
          "name": "data",
          "type": "bytes"
        }
      ],
      "name": "safeTransferFrom",
      "outputs": [],
      "stateMutability": "nonpayable",
      "type": "function"
    },
    {
      "inputs": [
        {
          "internalType": "address",
          "name": "operator",
          "type": "address"
        },
        {
          "internalType": "bool",
          "name": "approved",
          "type": "bool"
        }
      ],
      "name": "setApprovalForAll",
      "outputs": [],
      "stateMutability": "nonpayable",
      "type": "function"
    },
    {
      "inputs": [
        {
          "internalType": "address",
          "name": "_minter",
          "type": "address"
        }
      ],
      "name": "setMinterRole",
      "outputs": [],
      "stateMutability": "nonpayable",
      "type": "function"
    },
    {
      "inputs": [
        {
          "internalType": "string",
          "name": "_newuri",
          "type": "string"
        }
      ],
      "name": "setURI",
      "outputs": [],
      "stateMutability": "nonpayable",
      "type": "function"
    },
    {
      "inputs": [
        {
          "internalType": "bytes4",
          "name": "interfaceId",
          "type": "bytes4"
        }
      ],
      "name": "supportsInterface",
      "outputs": [
        {
          "internalType": "bool",
          "name": "",
          "type": "bool"
        }
      ],
      "stateMutability": "view",
      "type": "function"
    },
    {
      "inputs": [
        {
          "internalType": "uint256",
          "name": "",
          "type": "uint256"
        }
      ],
      "name": "uri",
      "outputs": [
        {
          "internalType": "string",
          "name": "",
          "type": "string"
        }
      ],
      "stateMutability": "view",
      "type": "function"
    }
  ],
  "bytecode": "0x60806040523480156200001157600080fd5b506040518060400160405280601581526020017f68747470733a2f2f697066732e696f2f697066732f00000000000000000000008152506200005981620000a760201b60201c565b506200006f6000801b33620000c360201b60201c565b620000a17f9f2df0fed2c77648de5860a4cc508cd0818c85b8b8a1ab4ceeef8d981c8956a633620000c360201b60201c565b6200033d565b8060029080519060200190620000bf92919062000228565b5050565b620000d58282620001b560201b60201c565b620001b15760016003600084815260200190815260200160002060000160008373ffffffffffffffffffffffffffffffffffffffff1673ffffffffffffffffffffffffffffffffffffffff16815260200190815260200160002060006101000a81548160ff021916908315150217905550620001566200022060201b60201c565b73ffffffffffffffffffffffffffffffffffffffff168173ffffffffffffffffffffffffffffffffffffffff16837f2f8788117e7eff1d82e926ec794901d17c78024a50270940304540a733656f0d60405160405180910390a45b5050565b60006003600084815260200190815260200160002060000160008373ffffffffffffffffffffffffffffffffffffffff1673ffffffffffffffffffffffffffffffffffffffff16815260200190815260200160002060009054906101000a900460ff16905092915050565b600033905090565b8280546200023690620002d8565b90600052602060002090601f0160209004810192826200025a5760008555620002a6565b82601f106200027557805160ff1916838001178555620002a6565b82800160010185558215620002a6579182015b82811115620002a557825182559160200191906001019062000288565b5b509050620002b59190620002b9565b5090565b5b80821115620002d4576000816000905550600101620002ba565b5090565b60006002820490506001821680620002f157607f821691505b602082108114156200030857620003076200030e565b5b50919050565b7f4e487b7100000000000000000000000000000000000000000000000000000000600052602260045260246000fd5b613d89806200034d6000396000f3fe608060405234801561001057600080fd5b506004361061012b5760003560e01c8063731133e9116100ad578063c06399aa11610071578063c06399aa1461034e578063d53913931461036a578063d547741f14610388578063e985e9c5146103a4578063f242432a146103d45761012b565b8063731133e9146102ac57806391d14854146102c8578063945d1229146102f8578063a217fddf14610314578063a22cb465146103325761012b565b8063248a9ca3116100f4578063248a9ca3146101f85780632eb2c2d6146102285780632f2ff15d1461024457806336568abe146102605780634e1273f41461027c5761012b565b8062fdd58e1461013057806301ffc9a71461016057806302fe5305146101905780630e89341c146101ac5780631f7fdffa146101dc575b600080fd5b61014a600480360381019061014591906129d0565b6103f0565b6040516101579190613339565b60405180910390f35b61017a60048036038101906101759190612bbf565b6104b9565b6040516101879190613141565b60405180910390f35b6101aa60048036038101906101a59190612c11565b6104cb565b005b6101c660048036038101906101c19190612c52565b6104e5565b6040516101d39190613177565b60405180910390f35b6101f660048036038101906101f191906128e9565b610579565b005b610212600480360381019061020d9190612b5a565b6105b6565b60405161021f919061315c565b60405180910390f35b610242600480360381019061023d919061279b565b6105d6565b005b61025e60048036038101906102599190612b83565b610677565b005b61027a60048036038101906102759190612b83565b610698565b005b61029660048036038101906102919190612aee565b61071b565b6040516102a391906130e8565b60405180910390f35b6102c660048036038101906102c19190612a73565b6108cc565b005b6102e260048036038101906102dd9190612b83565b610909565b6040516102ef9190613141565b60405180910390f35b610312600480360381019061030d9190612736565b610974565b005b61031c6109af565b604051610329919061315c565b60405180910390f35b61034c60048036038101906103479190612994565b6109b6565b005b61036860048036038101906103639190612a0c565b6109cc565b005b610372610a49565b60405161037f919061315c565b60405180910390f35b6103a2600480360381019061039d9190612b83565b610a6d565b005b6103be60048036038101906103b9919061275f565b610a8e565b6040516103cb9190613141565b60405180910390f35b6103ee60048036038101906103e9919061285a565b610b22565b005b60008073ffffffffffffffffffffffffffffffffffffffff168373ffffffffffffffffffffffffffffffffffffffff161415610461576040517f08c379a0000000000000000000000000000000000000000000000000000000008152600401610458906131f9565b60405180910390fd5b60008083815260200190815260200160002060008473ffffffffffffffffffffffffffffffffffffffff1673ffffffffffffffffffffffffffffffffffffffff16815260200190815260200160002054905092915050565b60006104c482610bc3565b9050919050565b6000801b6104d881610c3d565b6104e182610c51565b5050565b6060600280546104f4906136a2565b80601f0160208091040260200160405190810160405280929190818152602001828054610520906136a2565b801561056d5780601f106105425761010080835404028352916020019161056d565b820191906000526020600020905b81548152906001019060200180831161055057829003601f168201915b50505050509050919050565b7f9f2df0fed2c77648de5860a4cc508cd0818c85b8b8a1ab4ceeef8d981c8956a66105a381610c3d565b6105af85858585610c6b565b5050505050565b600060036000838152602001908152602001600020600101549050919050565b6105de610ee4565b73ffffffffffffffffffffffffffffffffffffffff168573ffffffffffffffffffffffffffffffffffffffff16148061062457506106238561061e610ee4565b610a8e565b5b610663576040517f08c379a000000000000000000000000000000000000000000000000000000000815260040161065a90613259565b60405180910390fd5b6106708585858585610eec565b5050505050565b610680826105b6565b61068981610c3d565b610693838361125a565b505050565b6106a0610ee4565b73ffffffffffffffffffffffffffffffffffffffff168173ffffffffffffffffffffffffffffffffffffffff161461070d576040517f08c379a000000000000000000000000000000000000000000000000000000000815260040161070490613319565b60405180910390fd5b610717828261133b565b5050565b60608151835114610761576040517f08c379a0000000000000000000000000000000000000000000000000000000008152600401610758906132b9565b60405180910390fd5b6000835167ffffffffffffffff8111156107a4577f4e487b7100000000000000000000000000000000000000000000000000000000600052604160045260246000fd5b6040519080825280602002602001820160405280156107d25781602001602082028036833780820191505090505b50905060005b84518110156108c15761086b85828151811061081d577f4e487b7100000000000000000000000000000000000000000000000000000000600052603260045260246000fd5b602002602001015185838151811061085e577f4e487b7100000000000000000000000000000000000000000000000000000000600052603260045260246000fd5b60200260200101516103f0565b8282815181106108a4577f4e487b7100000000000000000000000000000000000000000000000000000000600052603260045260246000fd5b602002602001018181525050806108ba90613705565b90506107d8565b508091505092915050565b7f9f2df0fed2c77648de5860a4cc508cd0818c85b8b8a1ab4ceeef8d981c8956a66108f681610c3d565b6109028585858561141d565b5050505050565b60006003600084815260200190815260200160002060000160008373ffffffffffffffffffffffffffffffffffffffff1673ffffffffffffffffffffffffffffffffffffffff16815260200190815260200160002060009054906101000a900460ff16905092915050565b6000801b61098181610c3d565b6109ab7f9f2df0fed2c77648de5860a4cc508cd0818c85b8b8a1ab4ceeef8d981c8956a68361125a565b5050565b6000801b81565b6109c86109c1610ee4565b83836115ce565b5050565b7f9f2df0fed2c77648de5860a4cc508cd0818c85b8b8a1ab4ceeef8d981c8956a66109f681610c3d565b610a38848460016040518060400160405280600281526020017f307800000000000000000000000000000000000000000000000000000000000081525061141d565b610a42838361173b565b5050505050565b7f9f2df0fed2c77648de5860a4cc508cd0818c85b8b8a1ab4ceeef8d981c8956a681565b610a76826105b6565b610a7f81610c3d565b610a89838361133b565b505050565b6000600160008473ffffffffffffffffffffffffffffffffffffffff1673ffffffffffffffffffffffffffffffffffffffff16815260200190815260200160002060008373ffffffffffffffffffffffffffffffffffffffff1673ffffffffffffffffffffffffffffffffffffffff16815260200190815260200160002060009054906101000a900460ff16905092915050565b610b2a610ee4565b73ffffffffffffffffffffffffffffffffffffffff168573ffffffffffffffffffffffffffffffffffffffff161480610b705750610b6f85610b6a610ee4565b610a8e565b5b610baf576040517f08c379a0000000000000000000000000000000000000000000000000000000008152600401610ba690613219565b60405180910390fd5b610bbc85858585856117d3565b5050505050565b60007f7965db0b000000000000000000000000000000000000000000000000000000007bffffffffffffffffffffffffffffffffffffffffffffffffffffffff1916827bffffffffffffffffffffffffffffffffffffffffffffffffffffffff19161480610c365750610c3582611a6f565b5b9050919050565b610c4e81610c49610ee4565b611b51565b50565b8060029080519060200190610c67929190612419565b5050565b600073ffffffffffffffffffffffffffffffffffffffff168473ffffffffffffffffffffffffffffffffffffffff161415610cdb576040517f08c379a0000000000000000000000000000000000000000000000000000000008152600401610cd2906132f9565b60405180910390fd5b8151835114610d1f576040517f08c379a0000000000000000000000000000000000000000000000000000000008152600401610d16906132d9565b60405180910390fd5b6000610d29610ee4565b9050610d3a81600087878787611bee565b60005b8451811015610e3f57838181518110610d7f577f4e487b7100000000000000000000000000000000000000000000000000000000600052603260045260246000fd5b6020026020010151600080878481518110610dc3577f4e487b7100000000000000000000000000000000000000000000000000000000600052603260045260246000fd5b6020026020010151815260200190815260200160002060008873ffffffffffffffffffffffffffffffffffffffff1673ffffffffffffffffffffffffffffffffffffffff1681526020019081526020016000206000828254610e259190613508565b925050819055508080610e3790613705565b915050610d3d565b508473ffffffffffffffffffffffffffffffffffffffff16600073ffffffffffffffffffffffffffffffffffffffff168273ffffffffffffffffffffffffffffffffffffffff167f4a39dc06d4c0dbc64b70af90fd698a233a518aa5d07e595d983b8c0526c8f7fb8787604051610eb792919061310a565b60405180910390a4610ece81600087878787611bf6565b610edd81600087878787611bfe565b5050505050565b600033905090565b8151835114610f30576040517f08c379a0000000000000000000000000000000000000000000000000000000008152600401610f27906132d9565b60405180910390fd5b600073ffffffffffffffffffffffffffffffffffffffff168473ffffffffffffffffffffffffffffffffffffffff161415610fa0576040517f08c379a0000000000000000000000000000000000000000000000000000000008152600401610f9790613239565b60405180910390fd5b6000610faa610ee4565b9050610fba818787878787611bee565b60005b84518110156111b7576000858281518110611001577f4e487b7100000000000000000000000000000000000000000000000000000000600052603260045260246000fd5b602002602001015190506000858381518110611046577f4e487b7100000000000000000000000000000000000000000000000000000000600052603260045260246000fd5b60200260200101519050600080600084815260200190815260200160002060008b73ffffffffffffffffffffffffffffffffffffffff1673ffffffffffffffffffffffffffffffffffffffff168152602001908152602001600020549050818110156110e7576040517f08c379a00000000000000000000000000000000000000000000000000000000081526004016110de90613279565b60405180910390fd5b81810360008085815260200190815260200160002060008c73ffffffffffffffffffffffffffffffffffffffff1673ffffffffffffffffffffffffffffffffffffffff168152602001908152602001600020819055508160008085815260200190815260200160002060008b73ffffffffffffffffffffffffffffffffffffffff1673ffffffffffffffffffffffffffffffffffffffff168152602001908152602001600020600082825461119c9190613508565b92505081905550505050806111b090613705565b9050610fbd565b508473ffffffffffffffffffffffffffffffffffffffff168673ffffffffffffffffffffffffffffffffffffffff168273ffffffffffffffffffffffffffffffffffffffff167f4a39dc06d4c0dbc64b70af90fd698a233a518aa5d07e595d983b8c0526c8f7fb878760405161122e92919061310a565b60405180910390a4611244818787878787611bf6565b611252818787878787611bfe565b505050505050565b6112648282610909565b6113375760016003600084815260200190815260200160002060000160008373ffffffffffffffffffffffffffffffffffffffff1673ffffffffffffffffffffffffffffffffffffffff16815260200190815260200160002060006101000a81548160ff0219169083151502179055506112dc610ee4565b73ffffffffffffffffffffffffffffffffffffffff168173ffffffffffffffffffffffffffffffffffffffff16837f2f8788117e7eff1d82e926ec794901d17c78024a50270940304540a733656f0d60405160405180910390a45b5050565b6113458282610909565b156114195760006003600084815260200190815260200160002060000160008373ffffffffffffffffffffffffffffffffffffffff1673ffffffffffffffffffffffffffffffffffffffff16815260200190815260200160002060006101000a81548160ff0219169083151502179055506113be610ee4565b73ffffffffffffffffffffffffffffffffffffffff168173ffffffffffffffffffffffffffffffffffffffff16837ff6391f5c32d9c69d2a47ea670b442974b53935d1edc7fd64eb21e047a839171b60405160405180910390a45b5050565b600073ffffffffffffffffffffffffffffffffffffffff168473ffffffffffffffffffffffffffffffffffffffff16141561148d576040517f08c379a0000000000000000000000000000000000000000000000000000000008152600401611484906132f9565b60405180910390fd5b6000611497610ee4565b905060006114a485611de5565b905060006114b185611de5565b90506114c283600089858589611bee565b8460008088815260200190815260200160002060008973ffffffffffffffffffffffffffffffffffffffff1673ffffffffffffffffffffffffffffffffffffffff16815260200190815260200160002060008282546115219190613508565b925050819055508673ffffffffffffffffffffffffffffffffffffffff16600073ffffffffffffffffffffffffffffffffffffffff168473ffffffffffffffffffffffffffffffffffffffff167fc3d58168c5ae7397731d063d5bbf3d657854427343f4c083240f7aacaa2d0f62898960405161159f929190613384565b60405180910390a46115b683600089858589611bf6565b6115c583600089898989611eab565b50505050505050565b8173ffffffffffffffffffffffffffffffffffffffff168373ffffffffffffffffffffffffffffffffffffffff16141561163d576040517f08c379a000000000000000000000000000000000000000000000000000000000815260040161163490613299565b60405180910390fd5b80600160008573ffffffffffffffffffffffffffffffffffffffff1673ffffffffffffffffffffffffffffffffffffffff16815260200190815260200160002060008473ffffffffffffffffffffffffffffffffffffffff1673ffffffffffffffffffffffffffffffffffffffff16815260200190815260200160002060006101000a81548160ff0219169083151502179055508173ffffffffffffffffffffffffffffffffffffffff168373ffffffffffffffffffffffffffffffffffffffff167f17307eab39ab6107e8899845ad3d59bd9653f200f220920489ca2b5937696c318360405161172e9190613141565b60405180910390a3505050565b60007f9f2df0fed2c77648de5860a4cc508cd0818c85b8b8a1ab4ceeef8d981c8956a661176781610c3d565b8260046000868152602001908152602001600020908051906020019061178e929190612419565b507fd2d827dddfc9c9a02afc5fc68d3251684b36e213a7999ebd90a861f25df4077e84846040516117c0929190613354565b60405180910390a1600191505092915050565b600073ffffffffffffffffffffffffffffffffffffffff168473ffffffffffffffffffffffffffffffffffffffff161415611843576040517f08c379a000000000000000000000000000000000000000000000000000000000815260040161183a90613239565b60405180910390fd5b600061184d610ee4565b9050600061185a85611de5565b9050600061186785611de5565b9050611877838989858589611bee565b600080600088815260200190815260200160002060008a73ffffffffffffffffffffffffffffffffffffffff1673ffffffffffffffffffffffffffffffffffffffff1681526020019081526020016000205490508581101561190e576040517f08c379a000000000000000000000000000000000000000000000000000000000815260040161190590613279565b60405180910390fd5b85810360008089815260200190815260200160002060008b73ffffffffffffffffffffffffffffffffffffffff1673ffffffffffffffffffffffffffffffffffffffff168152602001908152602001600020819055508560008089815260200190815260200160002060008a73ffffffffffffffffffffffffffffffffffffffff1673ffffffffffffffffffffffffffffffffffffffff16815260200190815260200160002060008282546119c39190613508565b925050819055508773ffffffffffffffffffffffffffffffffffffffff168973ffffffffffffffffffffffffffffffffffffffff168573ffffffffffffffffffffffffffffffffffffffff167fc3d58168c5ae7397731d063d5bbf3d657854427343f4c083240f7aacaa2d0f628a8a604051611a40929190613384565b60405180910390a4611a56848a8a86868a611bf6565b611a64848a8a8a8a8a611eab565b505050505050505050565b60007fd9b67a26000000000000000000000000000000000000000000000000000000007bffffffffffffffffffffffffffffffffffffffffffffffffffffffff1916827bffffffffffffffffffffffffffffffffffffffffffffffffffffffff19161480611b3a57507f0e89341c000000000000000000000000000000000000000000000000000000007bffffffffffffffffffffffffffffffffffffffffffffffffffffffff1916827bffffffffffffffffffffffffffffffffffffffffffffffffffffffff1916145b80611b4a5750611b4982612092565b5b9050919050565b611b5b8282610909565b611bea57611b808173ffffffffffffffffffffffffffffffffffffffff1660146120fc565b611b8e8360001c60206120fc565b604051602001611b9f929190612fec565b6040516020818303038152906040526040517f08c379a0000000000000000000000000000000000000000000000000000000008152600401611be19190613177565b60405180910390fd5b5050565b505050505050565b505050505050565b611c1d8473ffffffffffffffffffffffffffffffffffffffff166123f6565b15611ddd578373ffffffffffffffffffffffffffffffffffffffff1663bc197c8187878686866040518663ffffffff1660e01b8152600401611c63959493929190613026565b602060405180830381600087803b158015611c7d57600080fd5b505af1925050508015611cae57506040513d601f19601f82011682018060405250810190611cab9190612be8565b60015b611d5457611cba6137db565b806308c379a01415611d175750611ccf613c4a565b80611cda5750611d19565b806040517f08c379a0000000000000000000000000000000000000000000000000000000008152600401611d0e9190613177565b60405180910390fd5b505b6040517f08c379a0000000000000000000000000000000000000000000000000000000008152600401611d4b90613199565b60405180910390fd5b63bc197c8160e01b7bffffffffffffffffffffffffffffffffffffffffffffffffffffffff1916817bffffffffffffffffffffffffffffffffffffffffffffffffffffffff191614611ddb576040517f08c379a0000000000000000000000000000000000000000000000000000000008152600401611dd2906131d9565b60405180910390fd5b505b505050505050565b60606000600167ffffffffffffffff811115611e2a577f4e487b7100000000000000000000000000000000000000000000000000000000600052604160045260246000fd5b604051908082528060200260200182016040528015611e585781602001602082028036833780820191505090505b5090508281600081518110611e96577f4e487b7100000000000000000000000000000000000000000000000000000000600052603260045260246000fd5b60200260200101818152505080915050919050565b611eca8473ffffffffffffffffffffffffffffffffffffffff166123f6565b1561208a578373ffffffffffffffffffffffffffffffffffffffff1663f23a6e6187878686866040518663ffffffff1660e01b8152600401611f1095949392919061308e565b602060405180830381600087803b158015611f2a57600080fd5b505af1925050508015611f5b57506040513d601f19601f82011682018060405250810190611f589190612be8565b60015b61200157611f676137db565b806308c379a01415611fc45750611f7c613c4a565b80611f875750611fc6565b806040517f08c379a0000000000000000000000000000000000000000000000000000000008152600401611fbb9190613177565b60405180910390fd5b505b6040517f08c379a0000000000000000000000000000000000000000000000000000000008152600401611ff890613199565b60405180910390fd5b63f23a6e6160e01b7bffffffffffffffffffffffffffffffffffffffffffffffffffffffff1916817bffffffffffffffffffffffffffffffffffffffffffffffffffffffff191614612088576040517f08c379a000000000000000000000000000000000000000000000000000000000815260040161207f906131d9565b60405180910390fd5b505b505050505050565b60007f01ffc9a7000000000000000000000000000000000000000000000000000000007bffffffffffffffffffffffffffffffffffffffffffffffffffffffff1916827bffffffffffffffffffffffffffffffffffffffffffffffffffffffff1916149050919050565b60606000600283600261210f919061355e565b6121199190613508565b67ffffffffffffffff811115612158577f4e487b7100000000000000000000000000000000000000000000000000000000600052604160045260246000fd5b6040519080825280601f01601f19166020018201604052801561218a5781602001600182028036833780820191505090505b5090507f3000000000000000000000000000000000000000000000000000000000000000816000815181106121e8577f4e487b7100000000000000000000000000000000000000000000000000000000600052603260045260246000fd5b60200101907effffffffffffffffffffffffffffffffffffffffffffffffffffffffffffff1916908160001a9053507f780000000000000000000000000000000000000000000000000000000000000081600181518110612272577f4e487b7100000000000000000000000000000000000000000000000000000000600052603260045260246000fd5b60200101907effffffffffffffffffffffffffffffffffffffffffffffffffffffffffffff1916908160001a905350600060018460026122b2919061355e565b6122bc9190613508565b90505b60018111156123a8577f3031323334353637383961626364656600000000000000000000000000000000600f861660108110612324577f4e487b7100000000000000000000000000000000000000000000000000000000600052603260045260246000fd5b1a60f81b828281518110612361577f4e487b7100000000000000000000000000000000000000000000000000000000600052603260045260246000fd5b60200101907effffffffffffffffffffffffffffffffffffffffffffffffffffffffffffff1916908160001a905350600485901c9450806123a190613678565b90506122bf565b50600084146123ec576040517f08c379a00000000000000000000000000000000000000000000000000000000081526004016123e3906131b9565b60405180910390fd5b8091505092915050565b6000808273ffffffffffffffffffffffffffffffffffffffff163b119050919050565b828054612425906136a2565b90600052602060002090601f016020900481019282612447576000855561248e565b82601f1061246057805160ff191683800117855561248e565b8280016001018555821561248e579182015b8281111561248d578251825591602001919060010190612472565b5b50905061249b919061249f565b5090565b5b808211156124b85760008160009055506001016124a0565b5090565b60006124cf6124ca846133d2565b6133ad565b905080838252602082019050828560208602820111156124ee57600080fd5b60005b8581101561251e57816125048882612610565b8452602084019350602083019250506001810190506124f1565b5050509392505050565b600061253b612536846133fe565b6133ad565b9050808382526020820190508285602086028201111561255a57600080fd5b60005b8581101561258a57816125708882612721565b84526020840193506020830192505060018101905061255d565b5050509392505050565b60006125a76125a28461342a565b6133ad565b9050828152602081018484840111156125bf57600080fd5b6125ca848285613636565b509392505050565b60006125e56125e08461345b565b6133ad565b9050828152602081018484840111156125fd57600080fd5b612608848285613636565b509392505050565b60008135905061261f81613ce0565b92915050565b600082601f83011261263657600080fd5b81356126468482602086016124bc565b91505092915050565b600082601f83011261266057600080fd5b8135612670848260208601612528565b91505092915050565b60008135905061268881613cf7565b92915050565b60008135905061269d81613d0e565b92915050565b6000813590506126b281613d25565b92915050565b6000815190506126c781613d25565b92915050565b600082601f8301126126de57600080fd5b81356126ee848260208601612594565b91505092915050565b600082601f83011261270857600080fd5b81356127188482602086016125d2565b91505092915050565b60008135905061273081613d3c565b92915050565b60006020828403121561274857600080fd5b600061275684828501612610565b91505092915050565b6000806040838503121561277257600080fd5b600061278085828601612610565b925050602061279185828601612610565b9150509250929050565b600080600080600060a086880312156127b357600080fd5b60006127c188828901612610565b95505060206127d288828901612610565b945050604086013567ffffffffffffffff8111156127ef57600080fd5b6127fb8882890161264f565b935050606086013567ffffffffffffffff81111561281857600080fd5b6128248882890161264f565b925050608086013567ffffffffffffffff81111561284157600080fd5b61284d888289016126cd565b9150509295509295909350565b600080600080600060a0868803121561287257600080fd5b600061288088828901612610565b955050602061289188828901612610565b94505060406128a288828901612721565b93505060606128b388828901612721565b925050608086013567ffffffffffffffff8111156128d057600080fd5b6128dc888289016126cd565b9150509295509295909350565b600080600080608085870312156128ff57600080fd5b600061290d87828801612610565b945050602085013567ffffffffffffffff81111561292a57600080fd5b6129368782880161264f565b935050604085013567ffffffffffffffff81111561295357600080fd5b61295f8782880161264f565b925050606085013567ffffffffffffffff81111561297c57600080fd5b612988878288016126cd565b91505092959194509250565b600080604083850312156129a757600080fd5b60006129b585828601612610565b92505060206129c685828601612679565b9150509250929050565b600080604083850312156129e357600080fd5b60006129f185828601612610565b9250506020612a0285828601612721565b9150509250929050565b600080600060608486031215612a2157600080fd5b6000612a2f86828701612610565b9350506020612a4086828701612721565b925050604084013567ffffffffffffffff811115612a5d57600080fd5b612a69868287016126f7565b9150509250925092565b60008060008060808587031215612a8957600080fd5b6000612a9787828801612610565b9450506020612aa887828801612721565b9350506040612ab987828801612721565b925050606085013567ffffffffffffffff811115612ad657600080fd5b612ae2878288016126cd565b91505092959194509250565b60008060408385031215612b0157600080fd5b600083013567ffffffffffffffff811115612b1b57600080fd5b612b2785828601612625565b925050602083013567ffffffffffffffff811115612b4457600080fd5b612b508582860161264f565b9150509250929050565b600060208284031215612b6c57600080fd5b6000612b7a8482850161268e565b91505092915050565b60008060408385031215612b9657600080fd5b6000612ba48582860161268e565b9250506020612bb585828601612610565b9150509250929050565b600060208284031215612bd157600080fd5b6000612bdf848285016126a3565b91505092915050565b600060208284031215612bfa57600080fd5b6000612c08848285016126b8565b91505092915050565b600060208284031215612c2357600080fd5b600082013567ffffffffffffffff811115612c3d57600080fd5b612c49848285016126f7565b91505092915050565b600060208284031215612c6457600080fd5b6000612c7284828501612721565b91505092915050565b6000612c878383612fce565b60208301905092915050565b612c9c816135b8565b82525050565b6000612cad8261349c565b612cb781856134ca565b9350612cc28361348c565b8060005b83811015612cf3578151612cda8882612c7b565b9750612ce5836134bd565b925050600181019050612cc6565b5085935050505092915050565b612d09816135ca565b82525050565b612d18816135d6565b82525050565b6000612d29826134a7565b612d3381856134db565b9350612d43818560208601613645565b612d4c816137fd565b840191505092915050565b6000612d62826134b2565b612d6c81856134ec565b9350612d7c818560208601613645565b612d85816137fd565b840191505092915050565b6000612d9b826134b2565b612da581856134fd565b9350612db5818560208601613645565b80840191505092915050565b6000612dce6034836134ec565b9150612dd98261381b565b604082019050919050565b6000612df16020836134ec565b9150612dfc8261386a565b602082019050919050565b6000612e146028836134ec565b9150612e1f82613893565b604082019050919050565b6000612e37602b836134ec565b9150612e42826138e2565b604082019050919050565b6000612e5a6029836134ec565b9150612e6582613931565b604082019050919050565b6000612e7d6025836134ec565b9150612e8882613980565b604082019050919050565b6000612ea06032836134ec565b9150612eab826139cf565b604082019050919050565b6000612ec3602a836134ec565b9150612ece82613a1e565b604082019050919050565b6000612ee66017836134fd565b9150612ef182613a6d565b601782019050919050565b6000612f096029836134ec565b9150612f1482613a96565b604082019050919050565b6000612f2c6029836134ec565b9150612f3782613ae5565b604082019050919050565b6000612f4f6028836134ec565b9150612f5a82613b34565b604082019050919050565b6000612f726021836134ec565b9150612f7d82613b83565b604082019050919050565b6000612f956011836134fd565b9150612fa082613bd2565b601182019050919050565b6000612fb8602f836134ec565b9150612fc382613bfb565b604082019050919050565b612fd78161362c565b82525050565b612fe68161362c565b82525050565b6000612ff782612ed9565b91506130038285612d90565b915061300e82612f88565b915061301a8284612d90565b91508190509392505050565b600060a08201905061303b6000830188612c93565b6130486020830187612c93565b818103604083015261305a8186612ca2565b9050818103606083015261306e8185612ca2565b905081810360808301526130828184612d1e565b90509695505050505050565b600060a0820190506130a36000830188612c93565b6130b06020830187612c93565b6130bd6040830186612fdd565b6130ca6060830185612fdd565b81810360808301526130dc8184612d1e565b90509695505050505050565b600060208201905081810360008301526131028184612ca2565b905092915050565b600060408201905081810360008301526131248185612ca2565b905081810360208301526131388184612ca2565b90509392505050565b60006020820190506131566000830184612d00565b92915050565b60006020820190506131716000830184612d0f565b92915050565b600060208201905081810360008301526131918184612d57565b905092915050565b600060208201905081810360008301526131b281612dc1565b9050919050565b600060208201905081810360008301526131d281612de4565b9050919050565b600060208201905081810360008301526131f281612e07565b9050919050565b6000602082019050818103600083015261321281612e2a565b9050919050565b6000602082019050818103600083015261323281612e4d565b9050919050565b6000602082019050818103600083015261325281612e70565b9050919050565b6000602082019050818103600083015261327281612e93565b9050919050565b6000602082019050818103600083015261329281612eb6565b9050919050565b600060208201905081810360008301526132b281612efc565b9050919050565b600060208201905081810360008301526132d281612f1f565b9050919050565b600060208201905081810360008301526132f281612f42565b9050919050565b6000602082019050818103600083015261331281612f65565b9050919050565b6000602082019050818103600083015261333281612fab565b9050919050565b600060208201905061334e6000830184612fdd565b92915050565b60006040820190506133696000830185612fdd565b818103602083015261337b8184612d57565b90509392505050565b60006040820190506133996000830185612fdd565b6133a66020830184612fdd565b9392505050565b60006133b76133c8565b90506133c382826136d4565b919050565b6000604051905090565b600067ffffffffffffffff8211156133ed576133ec6137ac565b5b602082029050602081019050919050565b600067ffffffffffffffff821115613419576134186137ac565b5b602082029050602081019050919050565b600067ffffffffffffffff821115613445576134446137ac565b5b61344e826137fd565b9050602081019050919050565b600067ffffffffffffffff821115613476576134756137ac565b5b61347f826137fd565b9050602081019050919050565b6000819050602082019050919050565b600081519050919050565b600081519050919050565b600081519050919050565b6000602082019050919050565b600082825260208201905092915050565b600082825260208201905092915050565b600082825260208201905092915050565b600081905092915050565b60006135138261362c565b915061351e8361362c565b9250827fffffffffffffffffffffffffffffffffffffffffffffffffffffffffffffffff038211156135535761355261374e565b5b828201905092915050565b60006135698261362c565b91506135748361362c565b9250817fffffffffffffffffffffffffffffffffffffffffffffffffffffffffffffffff04831182151516156135ad576135ac61374e565b5b828202905092915050565b60006135c38261360c565b9050919050565b60008115159050919050565b6000819050919050565b60007fffffffff0000000000000000000000000000000000000000000000000000000082169050919050565b600073ffffffffffffffffffffffffffffffffffffffff82169050919050565b6000819050919050565b82818337600083830152505050565b60005b83811015613663578082015181840152602081019050613648565b83811115613672576000848401525b50505050565b60006136838261362c565b915060008214156136975761369661374e565b5b600182039050919050565b600060028204905060018216806136ba57607f821691505b602082108114156136ce576136cd61377d565b5b50919050565b6136dd826137fd565b810181811067ffffffffffffffff821117156136fc576136fb6137ac565b5b80604052505050565b60006137108261362c565b91507fffffffffffffffffffffffffffffffffffffffffffffffffffffffffffffffff8214156137435761374261374e565b5b600182019050919050565b7f4e487b7100000000000000000000000000000000000000000000000000000000600052601160045260246000fd5b7f4e487b7100000000000000000000000000000000000000000000000000000000600052602260045260246000fd5b7f4e487b7100000000000000000000000000000000000000000000000000000000600052604160045260246000fd5b600060033d11156137fa5760046000803e6137f760005161380e565b90505b90565b6000601f19601f8301169050919050565b60008160e01c9050919050565b7f455243313135353a207472616e7366657220746f206e6f6e204552433131353560008201527f526563656976657220696d706c656d656e746572000000000000000000000000602082015250565b7f537472696e67733a20686578206c656e67746820696e73756666696369656e74600082015250565b7f455243313135353a204552433131353552656365697665722072656a6563746560008201527f6420746f6b656e73000000000000000000000000000000000000000000000000602082015250565b7f455243313135353a2062616c616e636520717565727920666f7220746865207a60008201527f65726f2061646472657373000000000000000000000000000000000000000000602082015250565b7f455243313135353a2063616c6c6572206973206e6f74206f776e6572206e6f7260008201527f20617070726f7665640000000000000000000000000000000000000000000000602082015250565b7f455243313135353a207472616e7366657220746f20746865207a65726f20616460008201527f6472657373000000000000000000000000000000000000000000000000000000602082015250565b7f455243313135353a207472616e736665722063616c6c6572206973206e6f742060008201527f6f776e6572206e6f7220617070726f7665640000000000000000000000000000602082015250565b7f455243313135353a20696e73756666696369656e742062616c616e636520666f60008201527f72207472616e7366657200000000000000000000000000000000000000000000602082015250565b7f416363657373436f6e74726f6c3a206163636f756e7420000000000000000000600082015250565b7f455243313135353a2073657474696e6720617070726f76616c2073746174757360008201527f20666f722073656c660000000000000000000000000000000000000000000000602082015250565b7f455243313135353a206163636f756e747320616e6420696473206c656e67746860008201527f206d69736d617463680000000000000000000000000000000000000000000000602082015250565b7f455243313135353a2069647320616e6420616d6f756e7473206c656e6774682060008201527f6d69736d61746368000000000000000000000000000000000000000000000000602082015250565b7f455243313135353a206d696e7420746f20746865207a65726f2061646472657360008201527f7300000000000000000000000000000000000000000000000000000000000000602082015250565b7f206973206d697373696e6720726f6c6520000000000000000000000000000000600082015250565b7f416363657373436f6e74726f6c3a2063616e206f6e6c792072656e6f756e636560008201527f20726f6c657320666f722073656c660000000000000000000000000000000000602082015250565b600060443d1015613c5a57613cdd565b613c626133c8565b60043d036004823e80513d602482011167ffffffffffffffff82111715613c8a575050613cdd565b808201805167ffffffffffffffff811115613ca85750505050613cdd565b80602083010160043d038501811115613cc5575050505050613cdd565b613cd4826020018501866136d4565b82955050505050505b90565b613ce9816135b8565b8114613cf457600080fd5b50565b613d00816135ca565b8114613d0b57600080fd5b50565b613d17816135d6565b8114613d2257600080fd5b50565b613d2e816135e0565b8114613d3957600080fd5b50565b613d458161362c565b8114613d5057600080fd5b5056fea264697066735822122058876d78e5fa6dab831caef2c9386b6dbebe1b48add4766a6399fe6425c3248964736f6c63430008040033",
  "linkReferences": {},
  "deployedLinkReferences": {}
}