{
  "_format": "hh-sol-artifact-1",
  "contractName": "PausToken",
  "sourceName": "contracts/Token.sol",
  "abi": [
    {
      "inputs": [],
      "stateMutability": "nonpayable",
      "type": "constructor"
    },
    {
      "anonymous": false,
      "inputs": [
        {
          "indexed": true,
          "internalType": "address",
          "name": "account",
          "type": "address"
        },
        {
          "indexed": true,
          "internalType": "address",
          "name": "operator",
          "type": "address"
        },
        {
          "indexed": false,
          "internalType": "bool",
          "name": "approved",
          "type": "bool"
        }
      ],
      "name": "ApprovalForAll",
      "type": "event"
    },
    {
      "anonymous": false,
      "inputs": [
        {
          "indexed": true,
          "internalType": "bytes32",
          "name": "role",
          "type": "bytes32"
        },
        {
          "indexed": true,
          "internalType": "bytes32",
          "name": "previousAdminRole",
          "type": "bytes32"
        },
        {
          "indexed": true,
          "internalType": "bytes32",
          "name": "newAdminRole",
          "type": "bytes32"
        }
      ],
      "name": "RoleAdminChanged",
      "type": "event"
    },
    {
      "anonymous": false,
      "inputs": [
        {
          "indexed": true,
          "internalType": "bytes32",
          "name": "role",
          "type": "bytes32"
        },
        {
          "indexed": true,
          "internalType": "address",
          "name": "account",
          "type": "address"
        },
        {
          "indexed": true,
          "internalType": "address",
          "name": "sender",
          "type": "address"
        }
      ],
      "name": "RoleGranted",
      "type": "event"
    },
    {
      "anonymous": false,
      "inputs": [
        {
          "indexed": true,
          "internalType": "bytes32",
          "name": "role",
          "type": "bytes32"
        },
        {
          "indexed": true,
          "internalType": "address",
          "name": "account",
          "type": "address"
        },
        {
          "indexed": true,
          "internalType": "address",
          "name": "sender",
          "type": "address"
        }
      ],
      "name": "RoleRevoked",
      "type": "event"
    },
    {
      "anonymous": false,
      "inputs": [
        {
          "indexed": false,
          "internalType": "uint256",
          "name": "tokenId",
          "type": "uint256"
        },
        {
          "indexed": false,
          "internalType": "string",
          "name": "newTokenUri",
          "type": "string"
        }
      ],
      "name": "SetTokenURI",
      "type": "event"
    },
    {
      "anonymous": false,
      "inputs": [
        {
          "indexed": true,
          "internalType": "address",
          "name": "operator",
          "type": "address"
        },
        {
          "indexed": true,
          "internalType": "address",
          "name": "from",
          "type": "address"
        },
        {
          "indexed": true,
          "internalType": "address",
          "name": "to",
          "type": "address"
        },
        {
          "indexed": false,
          "internalType": "uint256[]",
          "name": "ids",
          "type": "uint256[]"
        },
        {
          "indexed": false,
          "internalType": "uint256[]",
          "name": "values",
          "type": "uint256[]"
        }
      ],
      "name": "TransferBatch",
      "type": "event"
    },
    {
      "anonymous": false,
      "inputs": [
        {
          "indexed": true,
          "internalType": "address",
          "name": "operator",
          "type": "address"
        },
        {
          "indexed": true,
          "internalType": "address",
          "name": "from",
          "type": "address"
        },
        {
          "indexed": true,
          "internalType": "address",
          "name": "to",
          "type": "address"
        },
        {
          "indexed": false,
          "internalType": "uint256",
          "name": "id",
          "type": "uint256"
        },
        {
          "indexed": false,
          "internalType": "uint256",
          "name": "value",
          "type": "uint256"
        }
      ],
      "name": "TransferSingle",
      "type": "event"
    },
    {
      "anonymous": false,
      "inputs": [
        {
          "indexed": false,
          "internalType": "string",
          "name": "value",
          "type": "string"
        },
        {
          "indexed": true,
          "internalType": "uint256",
          "name": "id",
          "type": "uint256"
        }
      ],
      "name": "URI",
      "type": "event"
    },
    {
      "inputs": [],
      "name": "DEFAULT_ADMIN_ROLE",
      "outputs": [
        {
          "internalType": "bytes32",
          "name": "",
          "type": "bytes32"
        }
      ],
      "stateMutability": "view",
      "type": "function"
    },
    {
      "inputs": [],
      "name": "MINTER_ROLE",
      "outputs": [
        {
          "internalType": "bytes32",
          "name": "",
          "type": "bytes32"
        }
      ],
      "stateMutability": "view",
      "type": "function"
    },
    {
      "inputs": [
        {
          "internalType": "address",
          "name": "account",
          "type": "address"
        },
        {
          "internalType": "uint256",
          "name": "id",
          "type": "uint256"
        }
      ],
      "name": "balanceOf",
      "outputs": [
        {
          "internalType": "uint256",
          "name": "",
          "type": "uint256"
        }
      ],
      "stateMutability": "view",
      "type": "function"
    },
    {
      "inputs": [
        {
          "internalType": "address[]",
          "name": "accounts",
          "type": "address[]"
        },
        {
          "internalType": "uint256[]",
          "name": "ids",
          "type": "uint256[]"
        }
      ],
      "name": "balanceOfBatch",
      "outputs": [
        {
          "internalType": "uint256[]",
          "name": "",
          "type": "uint256[]"
        }
      ],
      "stateMutability": "view",
      "type": "function"
    },
    {
      "inputs": [
        {
          "internalType": "bytes32",
          "name": "role",
          "type": "bytes32"
        }
      ],
      "name": "getRoleAdmin",
      "outputs": [
        {
          "internalType": "bytes32",
          "name": "",
          "type": "bytes32"
        }
      ],
      "stateMutability": "view",
      "type": "function"
    },
    {
      "inputs": [
        {
          "internalType": "bytes32",
          "name": "role",
          "type": "bytes32"
        },
        {
          "internalType": "address",
          "name": "account",
          "type": "address"
        }
      ],
      "name": "grantRole",
      "outputs": [],
      "stateMutability": "nonpayable",
      "type": "function"
    },
    {
      "inputs": [
        {
          "internalType": "bytes32",
          "name": "role",
          "type": "bytes32"
        },
        {
          "internalType": "address",
          "name": "account",
          "type": "address"
        }
      ],
      "name": "hasRole",
      "outputs": [
        {
          "internalType": "bool",
          "name": "",
          "type": "bool"
        }
      ],
      "stateMutability": "view",
      "type": "function"
    },
    {
      "inputs": [
        {
          "internalType": "uint256",
          "name": "",
          "type": "uint256"
        }
      ],
      "name": "idToUri",
      "outputs": [
        {
          "internalType": "string",
          "name": "",
          "type": "string"
        }
      ],
      "stateMutability": "view",
      "type": "function"
    },
    {
      "inputs": [
        {
          "internalType": "address",
          "name": "account",
          "type": "address"
        },
        {
          "internalType": "address",
          "name": "operator",
          "type": "address"
        }
      ],
      "name": "isApprovedForAll",
      "outputs": [
        {
          "internalType": "bool",
          "name": "",
          "type": "bool"
        }
      ],
      "stateMutability": "view",
      "type": "function"
    },
    {
      "inputs": [
        {
          "internalType": "address",
          "name": "_account",
          "type": "address"
        },
        {
          "internalType": "uint256",
          "name": "_id",
          "type": "uint256"
        },
        {
          "internalType": "uint256",
          "name": "_amount",
          "type": "uint256"
        },
        {
          "internalType": "bytes",
          "name": "_data",
          "type": "bytes"
        }
      ],
      "name": "mint",
      "outputs": [],
      "stateMutability": "nonpayable",
      "type": "function"
    },
    {
      "inputs": [
        {
          "internalType": "address",
          "name": "_to",
          "type": "address"
        },
        {
          "internalType": "uint256[]",
          "name": "_ids",
          "type": "uint256[]"
        },
        {
          "internalType": "uint256[]",
          "name": "_amounts",
          "type": "uint256[]"
        },
        {
          "internalType": "bytes",
          "name": "_data",
          "type": "bytes"
        }
      ],
      "name": "mintBatch",
      "outputs": [],
      "stateMutability": "nonpayable",
      "type": "function"
    },
    {
      "inputs": [
        {
          "internalType": "address",
          "name": "_account",
          "type": "address"
        },
        {
          "internalType": "uint256",
          "name": "_id",
          "type": "uint256"
        },
        {
          "internalType": "string",
          "name": "_newTokenUri",
          "type": "string"
        }
      ],
      "name": "mintFirst",
      "outputs": [],
      "stateMutability": "nonpayable",
      "type": "function"
    },
    {
      "inputs": [
        {
          "internalType": "bytes32",
          "name": "role",
          "type": "bytes32"
        },
        {
          "internalType": "address",
          "name": "account",
          "type": "address"
        }
      ],
      "name": "renounceRole",
      "outputs": [],
      "stateMutability": "nonpayable",
      "type": "function"
    },
    {
      "inputs": [
        {
          "internalType": "bytes32",
          "name": "role",
          "type": "bytes32"
        },
        {
          "internalType": "address",
          "name": "account",
          "type": "address"
        }
      ],
      "name": "revokeRole",
      "outputs": [],
      "stateMutability": "nonpayable",
      "type": "function"
    },
    {
      "inputs": [
        {
          "internalType": "address",
          "name": "from",
          "type": "address"
        },
        {
          "internalType": "address",
          "name": "to",
          "type": "address"
        },
        {
          "internalType": "uint256[]",
          "name": "ids",
          "type": "uint256[]"
        },
        {
          "internalType": "uint256[]",
          "name": "amounts",
          "type": "uint256[]"
        },
        {
          "internalType": "bytes",
          "name": "data",
          "type": "bytes"
        }
      ],
      "name": "safeBatchTransferFrom",
      "outputs": [],
      "stateMutability": "nonpayable",
      "type": "function"
    },
    {
      "inputs": [
        {
          "internalType": "address",
          "name": "from",
          "type": "address"
        },
        {
          "internalType": "address",
          "name": "to",
          "type": "address"
        },
        {
          "internalType": "uint256",
          "name": "id",
          "type": "uint256"
        },
        {
          "internalType": "uint256",
          "name": "amount",
          "type": "uint256"
        },
        {
          "internalType": "bytes",
          "name": "data",
          "type": "bytes"
        }
      ],
      "name": "safeTransferFrom",
      "outputs": [],
      "stateMutability": "nonpayable",
      "type": "function"
    },
    {
      "inputs": [
        {
          "internalType": "address",
          "name": "operator",
          "type": "address"
        },
        {
          "internalType": "bool",
          "name": "approved",
          "type": "bool"
        }
      ],
      "name": "setApprovalForAll",
      "outputs": [],
      "stateMutability": "nonpayable",
      "type": "function"
    },
    {
      "inputs": [
        {
          "internalType": "address",
          "name": "_minter",
          "type": "address"
        }
      ],
      "name": "setMinterRole",
      "outputs": [],
      "stateMutability": "nonpayable",
      "type": "function"
    },
    {
      "inputs": [
        {
          "internalType": "string",
          "name": "_newuri",
          "type": "string"
        }
      ],
      "name": "setURI",
      "outputs": [],
      "stateMutability": "nonpayable",
      "type": "function"
    },
    {
      "inputs": [
        {
          "internalType": "bytes4",
          "name": "interfaceId",
          "type": "bytes4"
        }
      ],
      "name": "supportsInterface",
      "outputs": [
        {
          "internalType": "bool",
          "name": "",
          "type": "bool"
        }
      ],
      "stateMutability": "view",
      "type": "function"
    },
    {
      "inputs": [
        {
          "internalType": "uint256",
          "name": "",
          "type": "uint256"
        }
      ],
      "name": "uri",
      "outputs": [
        {
          "internalType": "string",
          "name": "",
          "type": "string"
        }
      ],
      "stateMutability": "view",
      "type": "function"
    }
  ],
  "bytecode": "0x60806040523480156200001157600080fd5b506040518060400160405280601581526020017f68747470733a2f2f697066732e696f2f697066732f00000000000000000000008152506200005981620000a760201b60201c565b506200006f6000801b33620000c360201b60201c565b620000a17f9f2df0fed2c77648de5860a4cc508cd0818c85b8b8a1ab4ceeef8d981c8956a633620000c360201b60201c565b6200033d565b8060029080519060200190620000bf92919062000228565b5050565b620000d58282620001b560201b60201c565b620001b15760016003600084815260200190815260200160002060000160008373ffffffffffffffffffffffffffffffffffffffff1673ffffffffffffffffffffffffffffffffffffffff16815260200190815260200160002060006101000a81548160ff021916908315150217905550620001566200022060201b60201c565b73ffffffffffffffffffffffffffffffffffffffff168173ffffffffffffffffffffffffffffffffffffffff16837f2f8788117e7eff1d82e926ec794901d17c78024a50270940304540a733656f0d60405160405180910390a45b5050565b60006003600084815260200190815260200160002060000160008373ffffffffffffffffffffffffffffffffffffffff1673ffffffffffffffffffffffffffffffffffffffff16815260200190815260200160002060009054906101000a900460ff16905092915050565b600033905090565b8280546200023690620002d8565b90600052602060002090601f0160209004810192826200025a5760008555620002a6565b82601f106200027557805160ff1916838001178555620002a6565b82800160010185558215620002a6579182015b82811115620002a557825182559160200191906001019062000288565b5b509050620002b59190620002b9565b5090565b5b80821115620002d4576000816000905550600101620002ba565b5090565b60006002820490506001821680620002f157607f821691505b602082108114156200030857620003076200030e565b5b50919050565b7f4e487b7100000000000000000000000000000000000000000000000000000000600052602260045260246000fd5b613e64806200034d6000396000f3fe608060405234801561001057600080fd5b50600436106101365760003560e01c8063731133e9116100b8578063c06399aa1161007c578063c06399aa14610359578063d539139314610375578063d547741f14610393578063e6fb9e94146103af578063e985e9c5146103df578063f242432a1461040f57610136565b8063731133e9146102b757806391d14854146102d3578063945d122914610303578063a217fddf1461031f578063a22cb4651461033d57610136565b8063248a9ca3116100ff578063248a9ca3146102035780632eb2c2d6146102335780632f2ff15d1461024f57806336568abe1461026b5780634e1273f41461028757610136565b8062fdd58e1461013b57806301ffc9a71461016b57806302fe53051461019b5780630e89341c146101b75780631f7fdffa146101e7575b600080fd5b61015560048036038101906101509190612aab565b61042b565b6040516101629190613414565b60405180910390f35b61018560048036038101906101809190612c9a565b6104f4565b604051610192919061321c565b60405180910390f35b6101b560048036038101906101b09190612cec565b610506565b005b6101d160048036038101906101cc9190612d2d565b610520565b6040516101de9190613252565b60405180910390f35b61020160048036038101906101fc91906129c4565b6105b4565b005b61021d60048036038101906102189190612c35565b6105f1565b60405161022a9190613237565b60405180910390f35b61024d60048036038101906102489190612876565b610611565b005b61026960048036038101906102649190612c5e565b6106b2565b005b61028560048036038101906102809190612c5e565b6106d3565b005b6102a1600480360381019061029c9190612bc9565b610756565b6040516102ae91906131c3565b60405180910390f35b6102d160048036038101906102cc9190612b4e565b610907565b005b6102ed60048036038101906102e89190612c5e565b610944565b6040516102fa919061321c565b60405180910390f35b61031d60048036038101906103189190612811565b6109af565b005b6103276109ea565b6040516103349190613237565b60405180910390f35b61035760048036038101906103529190612a6f565b6109f1565b005b610373600480360381019061036e9190612ae7565b610a07565b005b61037d610a84565b60405161038a9190613237565b60405180910390f35b6103ad60048036038101906103a89190612c5e565b610aa8565b005b6103c960048036038101906103c49190612d2d565b610ac9565b6040516103d69190613252565b60405180910390f35b6103f960048036038101906103f4919061283a565b610b69565b604051610406919061321c565b60405180910390f35b61042960048036038101906104249190612935565b610bfd565b005b60008073ffffffffffffffffffffffffffffffffffffffff168373ffffffffffffffffffffffffffffffffffffffff16141561049c576040517f08c379a0000000000000000000000000000000000000000000000000000000008152600401610493906132d4565b60405180910390fd5b60008083815260200190815260200160002060008473ffffffffffffffffffffffffffffffffffffffff1673ffffffffffffffffffffffffffffffffffffffff16815260200190815260200160002054905092915050565b60006104ff82610c9e565b9050919050565b6000801b61051381610d18565b61051c82610d2c565b5050565b60606002805461052f9061377d565b80601f016020809104026020016040519081016040528092919081815260200182805461055b9061377d565b80156105a85780601f1061057d576101008083540402835291602001916105a8565b820191906000526020600020905b81548152906001019060200180831161058b57829003601f168201915b50505050509050919050565b7f9f2df0fed2c77648de5860a4cc508cd0818c85b8b8a1ab4ceeef8d981c8956a66105de81610d18565b6105ea85858585610d46565b5050505050565b600060036000838152602001908152602001600020600101549050919050565b610619610fbf565b73ffffffffffffffffffffffffffffffffffffffff168573ffffffffffffffffffffffffffffffffffffffff16148061065f575061065e85610659610fbf565b610b69565b5b61069e576040517f08c379a000000000000000000000000000000000000000000000000000000000815260040161069590613334565b60405180910390fd5b6106ab8585858585610fc7565b5050505050565b6106bb826105f1565b6106c481610d18565b6106ce8383611335565b505050565b6106db610fbf565b73ffffffffffffffffffffffffffffffffffffffff168173ffffffffffffffffffffffffffffffffffffffff1614610748576040517f08c379a000000000000000000000000000000000000000000000000000000000815260040161073f906133f4565b60405180910390fd5b6107528282611416565b5050565b6060815183511461079c576040517f08c379a000000000000000000000000000000000000000000000000000000000815260040161079390613394565b60405180910390fd5b6000835167ffffffffffffffff8111156107df577f4e487b7100000000000000000000000000000000000000000000000000000000600052604160045260246000fd5b60405190808252806020026020018201604052801561080d5781602001602082028036833780820191505090505b50905060005b84518110156108fc576108a6858281518110610858577f4e487b7100000000000000000000000000000000000000000000000000000000600052603260045260246000fd5b6020026020010151858381518110610899577f4e487b7100000000000000000000000000000000000000000000000000000000600052603260045260246000fd5b602002602001015161042b565b8282815181106108df577f4e487b7100000000000000000000000000000000000000000000000000000000600052603260045260246000fd5b602002602001018181525050806108f5906137e0565b9050610813565b508091505092915050565b7f9f2df0fed2c77648de5860a4cc508cd0818c85b8b8a1ab4ceeef8d981c8956a661093181610d18565b61093d858585856114f8565b5050505050565b60006003600084815260200190815260200160002060000160008373ffffffffffffffffffffffffffffffffffffffff1673ffffffffffffffffffffffffffffffffffffffff16815260200190815260200160002060009054906101000a900460ff16905092915050565b6000801b6109bc81610d18565b6109e67f9f2df0fed2c77648de5860a4cc508cd0818c85b8b8a1ab4ceeef8d981c8956a683611335565b5050565b6000801b81565b610a036109fc610fbf565b83836116a9565b5050565b7f9f2df0fed2c77648de5860a4cc508cd0818c85b8b8a1ab4ceeef8d981c8956a6610a3181610d18565b610a73848460016040518060400160405280600281526020017f30780000000000000000000000000000000000000000000000000000000000008152506114f8565b610a7d8383611816565b5050505050565b7f9f2df0fed2c77648de5860a4cc508cd0818c85b8b8a1ab4ceeef8d981c8956a681565b610ab1826105f1565b610aba81610d18565b610ac48383611416565b505050565b60046020528060005260406000206000915090508054610ae89061377d565b80601f0160208091040260200160405190810160405280929190818152602001828054610b149061377d565b8015610b615780601f10610b3657610100808354040283529160200191610b61565b820191906000526020600020905b815481529060010190602001808311610b4457829003601f168201915b505050505081565b6000600160008473ffffffffffffffffffffffffffffffffffffffff1673ffffffffffffffffffffffffffffffffffffffff16815260200190815260200160002060008373ffffffffffffffffffffffffffffffffffffffff1673ffffffffffffffffffffffffffffffffffffffff16815260200190815260200160002060009054906101000a900460ff16905092915050565b610c05610fbf565b73ffffffffffffffffffffffffffffffffffffffff168573ffffffffffffffffffffffffffffffffffffffff161480610c4b5750610c4a85610c45610fbf565b610b69565b5b610c8a576040517f08c379a0000000000000000000000000000000000000000000000000000000008152600401610c81906132f4565b60405180910390fd5b610c9785858585856118ae565b5050505050565b60007f7965db0b000000000000000000000000000000000000000000000000000000007bffffffffffffffffffffffffffffffffffffffffffffffffffffffff1916827bffffffffffffffffffffffffffffffffffffffffffffffffffffffff19161480610d115750610d1082611b4a565b5b9050919050565b610d2981610d24610fbf565b611c2c565b50565b8060029080519060200190610d429291906124f4565b5050565b600073ffffffffffffffffffffffffffffffffffffffff168473ffffffffffffffffffffffffffffffffffffffff161415610db6576040517f08c379a0000000000000000000000000000000000000000000000000000000008152600401610dad906133d4565b60405180910390fd5b8151835114610dfa576040517f08c379a0000000000000000000000000000000000000000000000000000000008152600401610df1906133b4565b60405180910390fd5b6000610e04610fbf565b9050610e1581600087878787611cc9565b60005b8451811015610f1a57838181518110610e5a577f4e487b7100000000000000000000000000000000000000000000000000000000600052603260045260246000fd5b6020026020010151600080878481518110610e9e577f4e487b7100000000000000000000000000000000000000000000000000000000600052603260045260246000fd5b6020026020010151815260200190815260200160002060008873ffffffffffffffffffffffffffffffffffffffff1673ffffffffffffffffffffffffffffffffffffffff1681526020019081526020016000206000828254610f0091906135e3565b925050819055508080610f12906137e0565b915050610e18565b508473ffffffffffffffffffffffffffffffffffffffff16600073ffffffffffffffffffffffffffffffffffffffff168273ffffffffffffffffffffffffffffffffffffffff167f4a39dc06d4c0dbc64b70af90fd698a233a518aa5d07e595d983b8c0526c8f7fb8787604051610f929291906131e5565b60405180910390a4610fa981600087878787611cd1565b610fb881600087878787611cd9565b5050505050565b600033905090565b815183511461100b576040517f08c379a0000000000000000000000000000000000000000000000000000000008152600401611002906133b4565b60405180910390fd5b600073ffffffffffffffffffffffffffffffffffffffff168473ffffffffffffffffffffffffffffffffffffffff16141561107b576040517f08c379a000000000000000000000000000000000000000000000000000000000815260040161107290613314565b60405180910390fd5b6000611085610fbf565b9050611095818787878787611cc9565b60005b84518110156112925760008582815181106110dc577f4e487b7100000000000000000000000000000000000000000000000000000000600052603260045260246000fd5b602002602001015190506000858381518110611121577f4e487b7100000000000000000000000000000000000000000000000000000000600052603260045260246000fd5b60200260200101519050600080600084815260200190815260200160002060008b73ffffffffffffffffffffffffffffffffffffffff1673ffffffffffffffffffffffffffffffffffffffff168152602001908152602001600020549050818110156111c2576040517f08c379a00000000000000000000000000000000000000000000000000000000081526004016111b990613354565b60405180910390fd5b81810360008085815260200190815260200160002060008c73ffffffffffffffffffffffffffffffffffffffff1673ffffffffffffffffffffffffffffffffffffffff168152602001908152602001600020819055508160008085815260200190815260200160002060008b73ffffffffffffffffffffffffffffffffffffffff1673ffffffffffffffffffffffffffffffffffffffff168152602001908152602001600020600082825461127791906135e3565b925050819055505050508061128b906137e0565b9050611098565b508473ffffffffffffffffffffffffffffffffffffffff168673ffffffffffffffffffffffffffffffffffffffff168273ffffffffffffffffffffffffffffffffffffffff167f4a39dc06d4c0dbc64b70af90fd698a233a518aa5d07e595d983b8c0526c8f7fb87876040516113099291906131e5565b60405180910390a461131f818787878787611cd1565b61132d818787878787611cd9565b505050505050565b61133f8282610944565b6114125760016003600084815260200190815260200160002060000160008373ffffffffffffffffffffffffffffffffffffffff1673ffffffffffffffffffffffffffffffffffffffff16815260200190815260200160002060006101000a81548160ff0219169083151502179055506113b7610fbf565b73ffffffffffffffffffffffffffffffffffffffff168173ffffffffffffffffffffffffffffffffffffffff16837f2f8788117e7eff1d82e926ec794901d17c78024a50270940304540a733656f0d60405160405180910390a45b5050565b6114208282610944565b156114f45760006003600084815260200190815260200160002060000160008373ffffffffffffffffffffffffffffffffffffffff1673ffffffffffffffffffffffffffffffffffffffff16815260200190815260200160002060006101000a81548160ff021916908315150217905550611499610fbf565b73ffffffffffffffffffffffffffffffffffffffff168173ffffffffffffffffffffffffffffffffffffffff16837ff6391f5c32d9c69d2a47ea670b442974b53935d1edc7fd64eb21e047a839171b60405160405180910390a45b5050565b600073ffffffffffffffffffffffffffffffffffffffff168473ffffffffffffffffffffffffffffffffffffffff161415611568576040517f08c379a000000000000000000000000000000000000000000000000000000000815260040161155f906133d4565b60405180910390fd5b6000611572610fbf565b9050600061157f85611ec0565b9050600061158c85611ec0565b905061159d83600089858589611cc9565b8460008088815260200190815260200160002060008973ffffffffffffffffffffffffffffffffffffffff1673ffffffffffffffffffffffffffffffffffffffff16815260200190815260200160002060008282546115fc91906135e3565b925050819055508673ffffffffffffffffffffffffffffffffffffffff16600073ffffffffffffffffffffffffffffffffffffffff168473ffffffffffffffffffffffffffffffffffffffff167fc3d58168c5ae7397731d063d5bbf3d657854427343f4c083240f7aacaa2d0f62898960405161167a92919061345f565b60405180910390a461169183600089858589611cd1565b6116a083600089898989611f86565b50505050505050565b8173ffffffffffffffffffffffffffffffffffffffff168373ffffffffffffffffffffffffffffffffffffffff161415611718576040517f08c379a000000000000000000000000000000000000000000000000000000000815260040161170f90613374565b60405180910390fd5b80600160008573ffffffffffffffffffffffffffffffffffffffff1673ffffffffffffffffffffffffffffffffffffffff16815260200190815260200160002060008473ffffffffffffffffffffffffffffffffffffffff1673ffffffffffffffffffffffffffffffffffffffff16815260200190815260200160002060006101000a81548160ff0219169083151502179055508173ffffffffffffffffffffffffffffffffffffffff168373ffffffffffffffffffffffffffffffffffffffff167f17307eab39ab6107e8899845ad3d59bd9653f200f220920489ca2b5937696c3183604051611809919061321c565b60405180910390a3505050565b60007f9f2df0fed2c77648de5860a4cc508cd0818c85b8b8a1ab4ceeef8d981c8956a661184281610d18565b826004600086815260200190815260200160002090805190602001906118699291906124f4565b507fd2d827dddfc9c9a02afc5fc68d3251684b36e213a7999ebd90a861f25df4077e848460405161189b92919061342f565b60405180910390a1600191505092915050565b600073ffffffffffffffffffffffffffffffffffffffff168473ffffffffffffffffffffffffffffffffffffffff16141561191e576040517f08c379a000000000000000000000000000000000000000000000000000000000815260040161191590613314565b60405180910390fd5b6000611928610fbf565b9050600061193585611ec0565b9050600061194285611ec0565b9050611952838989858589611cc9565b600080600088815260200190815260200160002060008a73ffffffffffffffffffffffffffffffffffffffff1673ffffffffffffffffffffffffffffffffffffffff168152602001908152602001600020549050858110156119e9576040517f08c379a00000000000000000000000000000000000000000000000000000000081526004016119e090613354565b60405180910390fd5b85810360008089815260200190815260200160002060008b73ffffffffffffffffffffffffffffffffffffffff1673ffffffffffffffffffffffffffffffffffffffff168152602001908152602001600020819055508560008089815260200190815260200160002060008a73ffffffffffffffffffffffffffffffffffffffff1673ffffffffffffffffffffffffffffffffffffffff1681526020019081526020016000206000828254611a9e91906135e3565b925050819055508773ffffffffffffffffffffffffffffffffffffffff168973ffffffffffffffffffffffffffffffffffffffff168573ffffffffffffffffffffffffffffffffffffffff167fc3d58168c5ae7397731d063d5bbf3d657854427343f4c083240f7aacaa2d0f628a8a604051611b1b92919061345f565b60405180910390a4611b31848a8a86868a611cd1565b611b3f848a8a8a8a8a611f86565b505050505050505050565b60007fd9b67a26000000000000000000000000000000000000000000000000000000007bffffffffffffffffffffffffffffffffffffffffffffffffffffffff1916827bffffffffffffffffffffffffffffffffffffffffffffffffffffffff19161480611c1557507f0e89341c000000000000000000000000000000000000000000000000000000007bffffffffffffffffffffffffffffffffffffffffffffffffffffffff1916827bffffffffffffffffffffffffffffffffffffffffffffffffffffffff1916145b80611c255750611c248261216d565b5b9050919050565b611c368282610944565b611cc557611c5b8173ffffffffffffffffffffffffffffffffffffffff1660146121d7565b611c698360001c60206121d7565b604051602001611c7a9291906130c7565b6040516020818303038152906040526040517f08c379a0000000000000000000000000000000000000000000000000000000008152600401611cbc9190613252565b60405180910390fd5b5050565b505050505050565b505050505050565b611cf88473ffffffffffffffffffffffffffffffffffffffff166124d1565b15611eb8578373ffffffffffffffffffffffffffffffffffffffff1663bc197c8187878686866040518663ffffffff1660e01b8152600401611d3e959493929190613101565b602060405180830381600087803b158015611d5857600080fd5b505af1925050508015611d8957506040513d601f19601f82011682018060405250810190611d869190612cc3565b60015b611e2f57611d956138b6565b806308c379a01415611df25750611daa613d25565b80611db55750611df4565b806040517f08c379a0000000000000000000000000000000000000000000000000000000008152600401611de99190613252565b60405180910390fd5b505b6040517f08c379a0000000000000000000000000000000000000000000000000000000008152600401611e2690613274565b60405180910390fd5b63bc197c8160e01b7bffffffffffffffffffffffffffffffffffffffffffffffffffffffff1916817bffffffffffffffffffffffffffffffffffffffffffffffffffffffff191614611eb6576040517f08c379a0000000000000000000000000000000000000000000000000000000008152600401611ead906132b4565b60405180910390fd5b505b505050505050565b60606000600167ffffffffffffffff811115611f05577f4e487b7100000000000000000000000000000000000000000000000000000000600052604160045260246000fd5b604051908082528060200260200182016040528015611f335781602001602082028036833780820191505090505b5090508281600081518110611f71577f4e487b7100000000000000000000000000000000000000000000000000000000600052603260045260246000fd5b60200260200101818152505080915050919050565b611fa58473ffffffffffffffffffffffffffffffffffffffff166124d1565b15612165578373ffffffffffffffffffffffffffffffffffffffff1663f23a6e6187878686866040518663ffffffff1660e01b8152600401611feb959493929190613169565b602060405180830381600087803b15801561200557600080fd5b505af192505050801561203657506040513d601f19601f820116820180604052508101906120339190612cc3565b60015b6120dc576120426138b6565b806308c379a0141561209f5750612057613d25565b8061206257506120a1565b806040517f08c379a00000000000000000000000000000000000000000000000000000000081526004016120969190613252565b60405180910390fd5b505b6040517f08c379a00000000000000000000000000000000000000000000000000000000081526004016120d390613274565b60405180910390fd5b63f23a6e6160e01b7bffffffffffffffffffffffffffffffffffffffffffffffffffffffff1916817bffffffffffffffffffffffffffffffffffffffffffffffffffffffff191614612163576040517f08c379a000000000000000000000000000000000000000000000000000000000815260040161215a906132b4565b60405180910390fd5b505b505050505050565b60007f01ffc9a7000000000000000000000000000000000000000000000000000000007bffffffffffffffffffffffffffffffffffffffffffffffffffffffff1916827bffffffffffffffffffffffffffffffffffffffffffffffffffffffff1916149050919050565b6060600060028360026121ea9190613639565b6121f491906135e3565b67ffffffffffffffff811115612233577f4e487b7100000000000000000000000000000000000000000000000000000000600052604160045260246000fd5b6040519080825280601f01601f1916602001820160405280156122655781602001600182028036833780820191505090505b5090507f3000000000000000000000000000000000000000000000000000000000000000816000815181106122c3577f4e487b7100000000000000000000000000000000000000000000000000000000600052603260045260246000fd5b60200101907effffffffffffffffffffffffffffffffffffffffffffffffffffffffffffff1916908160001a9053507f78000000000000000000000000000000000000000000000000000000000000008160018151811061234d577f4e487b7100000000000000000000000000000000000000000000000000000000600052603260045260246000fd5b60200101907effffffffffffffffffffffffffffffffffffffffffffffffffffffffffffff1916908160001a9053506000600184600261238d9190613639565b61239791906135e3565b90505b6001811115612483577f3031323334353637383961626364656600000000000000000000000000000000600f8616601081106123ff577f4e487b7100000000000000000000000000000000000000000000000000000000600052603260045260246000fd5b1a60f81b82828151811061243c577f4e487b7100000000000000000000000000000000000000000000000000000000600052603260045260246000fd5b60200101907effffffffffffffffffffffffffffffffffffffffffffffffffffffffffffff1916908160001a905350600485901c94508061247c90613753565b905061239a565b50600084146124c7576040517f08c379a00000000000000000000000000000000000000000000000000000000081526004016124be90613294565b60405180910390fd5b8091505092915050565b6000808273ffffffffffffffffffffffffffffffffffffffff163b119050919050565b8280546125009061377d565b90600052602060002090601f0160209004810192826125225760008555612569565b82601f1061253b57805160ff1916838001178555612569565b82800160010185558215612569579182015b8281111561256857825182559160200191906001019061254d565b5b509050612576919061257a565b5090565b5b8082111561259357600081600090555060010161257b565b5090565b60006125aa6125a5846134ad565b613488565b905080838252602082019050828560208602820111156125c957600080fd5b60005b858110156125f957816125df88826126eb565b8452602084019350602083019250506001810190506125cc565b5050509392505050565b6000612616612611846134d9565b613488565b9050808382526020820190508285602086028201111561263557600080fd5b60005b85811015612665578161264b88826127fc565b845260208401935060208301925050600181019050612638565b5050509392505050565b600061268261267d84613505565b613488565b90508281526020810184848401111561269a57600080fd5b6126a5848285613711565b509392505050565b60006126c06126bb84613536565b613488565b9050828152602081018484840111156126d857600080fd5b6126e3848285613711565b509392505050565b6000813590506126fa81613dbb565b92915050565b600082601f83011261271157600080fd5b8135612721848260208601612597565b91505092915050565b600082601f83011261273b57600080fd5b813561274b848260208601612603565b91505092915050565b60008135905061276381613dd2565b92915050565b60008135905061277881613de9565b92915050565b60008135905061278d81613e00565b92915050565b6000815190506127a281613e00565b92915050565b600082601f8301126127b957600080fd5b81356127c984826020860161266f565b91505092915050565b600082601f8301126127e357600080fd5b81356127f38482602086016126ad565b91505092915050565b60008135905061280b81613e17565b92915050565b60006020828403121561282357600080fd5b6000612831848285016126eb565b91505092915050565b6000806040838503121561284d57600080fd5b600061285b858286016126eb565b925050602061286c858286016126eb565b9150509250929050565b600080600080600060a0868803121561288e57600080fd5b600061289c888289016126eb565b95505060206128ad888289016126eb565b945050604086013567ffffffffffffffff8111156128ca57600080fd5b6128d68882890161272a565b935050606086013567ffffffffffffffff8111156128f357600080fd5b6128ff8882890161272a565b925050608086013567ffffffffffffffff81111561291c57600080fd5b612928888289016127a8565b9150509295509295909350565b600080600080600060a0868803121561294d57600080fd5b600061295b888289016126eb565b955050602061296c888289016126eb565b945050604061297d888289016127fc565b935050606061298e888289016127fc565b925050608086013567ffffffffffffffff8111156129ab57600080fd5b6129b7888289016127a8565b9150509295509295909350565b600080600080608085870312156129da57600080fd5b60006129e8878288016126eb565b945050602085013567ffffffffffffffff811115612a0557600080fd5b612a118782880161272a565b935050604085013567ffffffffffffffff811115612a2e57600080fd5b612a3a8782880161272a565b925050606085013567ffffffffffffffff811115612a5757600080fd5b612a63878288016127a8565b91505092959194509250565b60008060408385031215612a8257600080fd5b6000612a90858286016126eb565b9250506020612aa185828601612754565b9150509250929050565b60008060408385031215612abe57600080fd5b6000612acc858286016126eb565b9250506020612add858286016127fc565b9150509250929050565b600080600060608486031215612afc57600080fd5b6000612b0a868287016126eb565b9350506020612b1b868287016127fc565b925050604084013567ffffffffffffffff811115612b3857600080fd5b612b44868287016127d2565b9150509250925092565b60008060008060808587031215612b6457600080fd5b6000612b72878288016126eb565b9450506020612b83878288016127fc565b9350506040612b94878288016127fc565b925050606085013567ffffffffffffffff811115612bb157600080fd5b612bbd878288016127a8565b91505092959194509250565b60008060408385031215612bdc57600080fd5b600083013567ffffffffffffffff811115612bf657600080fd5b612c0285828601612700565b925050602083013567ffffffffffffffff811115612c1f57600080fd5b612c2b8582860161272a565b9150509250929050565b600060208284031215612c4757600080fd5b6000612c5584828501612769565b91505092915050565b60008060408385031215612c7157600080fd5b6000612c7f85828601612769565b9250506020612c90858286016126eb565b9150509250929050565b600060208284031215612cac57600080fd5b6000612cba8482850161277e565b91505092915050565b600060208284031215612cd557600080fd5b6000612ce384828501612793565b91505092915050565b600060208284031215612cfe57600080fd5b600082013567ffffffffffffffff811115612d1857600080fd5b612d24848285016127d2565b91505092915050565b600060208284031215612d3f57600080fd5b6000612d4d848285016127fc565b91505092915050565b6000612d6283836130a9565b60208301905092915050565b612d7781613693565b82525050565b6000612d8882613577565b612d9281856135a5565b9350612d9d83613567565b8060005b83811015612dce578151612db58882612d56565b9750612dc083613598565b925050600181019050612da1565b5085935050505092915050565b612de4816136a5565b82525050565b612df3816136b1565b82525050565b6000612e0482613582565b612e0e81856135b6565b9350612e1e818560208601613720565b612e27816138d8565b840191505092915050565b6000612e3d8261358d565b612e4781856135c7565b9350612e57818560208601613720565b612e60816138d8565b840191505092915050565b6000612e768261358d565b612e8081856135d8565b9350612e90818560208601613720565b80840191505092915050565b6000612ea96034836135c7565b9150612eb4826138f6565b604082019050919050565b6000612ecc6020836135c7565b9150612ed782613945565b602082019050919050565b6000612eef6028836135c7565b9150612efa8261396e565b604082019050919050565b6000612f12602b836135c7565b9150612f1d826139bd565b604082019050919050565b6000612f356029836135c7565b9150612f4082613a0c565b604082019050919050565b6000612f586025836135c7565b9150612f6382613a5b565b604082019050919050565b6000612f7b6032836135c7565b9150612f8682613aaa565b604082019050919050565b6000612f9e602a836135c7565b9150612fa982613af9565b604082019050919050565b6000612fc16017836135d8565b9150612fcc82613b48565b601782019050919050565b6000612fe46029836135c7565b9150612fef82613b71565b604082019050919050565b60006130076029836135c7565b915061301282613bc0565b604082019050919050565b600061302a6028836135c7565b915061303582613c0f565b604082019050919050565b600061304d6021836135c7565b915061305882613c5e565b604082019050919050565b60006130706011836135d8565b915061307b82613cad565b601182019050919050565b6000613093602f836135c7565b915061309e82613cd6565b604082019050919050565b6130b281613707565b82525050565b6130c181613707565b82525050565b60006130d282612fb4565b91506130de8285612e6b565b91506130e982613063565b91506130f58284612e6b565b91508190509392505050565b600060a0820190506131166000830188612d6e565b6131236020830187612d6e565b81810360408301526131358186612d7d565b905081810360608301526131498185612d7d565b9050818103608083015261315d8184612df9565b90509695505050505050565b600060a08201905061317e6000830188612d6e565b61318b6020830187612d6e565b61319860408301866130b8565b6131a560608301856130b8565b81810360808301526131b78184612df9565b90509695505050505050565b600060208201905081810360008301526131dd8184612d7d565b905092915050565b600060408201905081810360008301526131ff8185612d7d565b905081810360208301526132138184612d7d565b90509392505050565b60006020820190506132316000830184612ddb565b92915050565b600060208201905061324c6000830184612dea565b92915050565b6000602082019050818103600083015261326c8184612e32565b905092915050565b6000602082019050818103600083015261328d81612e9c565b9050919050565b600060208201905081810360008301526132ad81612ebf565b9050919050565b600060208201905081810360008301526132cd81612ee2565b9050919050565b600060208201905081810360008301526132ed81612f05565b9050919050565b6000602082019050818103600083015261330d81612f28565b9050919050565b6000602082019050818103600083015261332d81612f4b565b9050919050565b6000602082019050818103600083015261334d81612f6e565b9050919050565b6000602082019050818103600083015261336d81612f91565b9050919050565b6000602082019050818103600083015261338d81612fd7565b9050919050565b600060208201905081810360008301526133ad81612ffa565b9050919050565b600060208201905081810360008301526133cd8161301d565b9050919050565b600060208201905081810360008301526133ed81613040565b9050919050565b6000602082019050818103600083015261340d81613086565b9050919050565b600060208201905061342960008301846130b8565b92915050565b600060408201905061344460008301856130b8565b81810360208301526134568184612e32565b90509392505050565b600060408201905061347460008301856130b8565b61348160208301846130b8565b9392505050565b60006134926134a3565b905061349e82826137af565b919050565b6000604051905090565b600067ffffffffffffffff8211156134c8576134c7613887565b5b602082029050602081019050919050565b600067ffffffffffffffff8211156134f4576134f3613887565b5b602082029050602081019050919050565b600067ffffffffffffffff8211156135205761351f613887565b5b613529826138d8565b9050602081019050919050565b600067ffffffffffffffff82111561355157613550613887565b5b61355a826138d8565b9050602081019050919050565b6000819050602082019050919050565b600081519050919050565b600081519050919050565b600081519050919050565b6000602082019050919050565b600082825260208201905092915050565b600082825260208201905092915050565b600082825260208201905092915050565b600081905092915050565b60006135ee82613707565b91506135f983613707565b9250827fffffffffffffffffffffffffffffffffffffffffffffffffffffffffffffffff0382111561362e5761362d613829565b5b828201905092915050565b600061364482613707565b915061364f83613707565b9250817fffffffffffffffffffffffffffffffffffffffffffffffffffffffffffffffff048311821515161561368857613687613829565b5b828202905092915050565b600061369e826136e7565b9050919050565b60008115159050919050565b6000819050919050565b60007fffffffff0000000000000000000000000000000000000000000000000000000082169050919050565b600073ffffffffffffffffffffffffffffffffffffffff82169050919050565b6000819050919050565b82818337600083830152505050565b60005b8381101561373e578082015181840152602081019050613723565b8381111561374d576000848401525b50505050565b600061375e82613707565b9150600082141561377257613771613829565b5b600182039050919050565b6000600282049050600182168061379557607f821691505b602082108114156137a9576137a8613858565b5b50919050565b6137b8826138d8565b810181811067ffffffffffffffff821117156137d7576137d6613887565b5b80604052505050565b60006137eb82613707565b91507fffffffffffffffffffffffffffffffffffffffffffffffffffffffffffffffff82141561381e5761381d613829565b5b600182019050919050565b7f4e487b7100000000000000000000000000000000000000000000000000000000600052601160045260246000fd5b7f4e487b7100000000000000000000000000000000000000000000000000000000600052602260045260246000fd5b7f4e487b7100000000000000000000000000000000000000000000000000000000600052604160045260246000fd5b600060033d11156138d55760046000803e6138d26000516138e9565b90505b90565b6000601f19601f8301169050919050565b60008160e01c9050919050565b7f455243313135353a207472616e7366657220746f206e6f6e204552433131353560008201527f526563656976657220696d706c656d656e746572000000000000000000000000602082015250565b7f537472696e67733a20686578206c656e67746820696e73756666696369656e74600082015250565b7f455243313135353a204552433131353552656365697665722072656a6563746560008201527f6420746f6b656e73000000000000000000000000000000000000000000000000602082015250565b7f455243313135353a2062616c616e636520717565727920666f7220746865207a60008201527f65726f2061646472657373000000000000000000000000000000000000000000602082015250565b7f455243313135353a2063616c6c6572206973206e6f74206f776e6572206e6f7260008201527f20617070726f7665640000000000000000000000000000000000000000000000602082015250565b7f455243313135353a207472616e7366657220746f20746865207a65726f20616460008201527f6472657373000000000000000000000000000000000000000000000000000000602082015250565b7f455243313135353a207472616e736665722063616c6c6572206973206e6f742060008201527f6f776e6572206e6f7220617070726f7665640000000000000000000000000000602082015250565b7f455243313135353a20696e73756666696369656e742062616c616e636520666f60008201527f72207472616e7366657200000000000000000000000000000000000000000000602082015250565b7f416363657373436f6e74726f6c3a206163636f756e7420000000000000000000600082015250565b7f455243313135353a2073657474696e6720617070726f76616c2073746174757360008201527f20666f722073656c660000000000000000000000000000000000000000000000602082015250565b7f455243313135353a206163636f756e747320616e6420696473206c656e67746860008201527f206d69736d617463680000000000000000000000000000000000000000000000602082015250565b7f455243313135353a2069647320616e6420616d6f756e7473206c656e6774682060008201527f6d69736d61746368000000000000000000000000000000000000000000000000602082015250565b7f455243313135353a206d696e7420746f20746865207a65726f2061646472657360008201527f7300000000000000000000000000000000000000000000000000000000000000602082015250565b7f206973206d697373696e6720726f6c6520000000000000000000000000000000600082015250565b7f416363657373436f6e74726f6c3a2063616e206f6e6c792072656e6f756e636560008201527f20726f6c657320666f722073656c660000000000000000000000000000000000602082015250565b600060443d1015613d3557613db8565b613d3d6134a3565b60043d036004823e80513d602482011167ffffffffffffffff82111715613d65575050613db8565b808201805167ffffffffffffffff811115613d835750505050613db8565b80602083010160043d038501811115613da0575050505050613db8565b613daf826020018501866137af565b82955050505050505b90565b613dc481613693565b8114613dcf57600080fd5b50565b613ddb816136a5565b8114613de657600080fd5b50565b613df2816136b1565b8114613dfd57600080fd5b50565b613e09816136bb565b8114613e1457600080fd5b50565b613e2081613707565b8114613e2b57600080fd5b5056fea264697066735822122009832674ad6bc07c0d0fbb63ab5ffc2b72fb85afba378a6bbc90226cb20d40e064736f6c63430008040033",
  "linkReferences": {},
  "deployedLinkReferences": {}
}