{
  "_format": "hh-sol-artifact-1",
  "contractName": "Marketplace",
  "sourceName": "contracts/Marketplace.sol",
  "abi": [
    {
      "inputs": [
        {
          "internalType": "contract IToken",
          "name": "_token",
          "type": "address"
        },
        {
          "internalType": "uint256",
          "name": "_feePercent",
          "type": "uint256"
        }
      ],
      "stateMutability": "nonpayable",
      "type": "constructor"
    },
    {
      "anonymous": false,
      "inputs": [
        {
          "indexed": false,
          "internalType": "uint256",
          "name": "nftId",
          "type": "uint256"
        },
        {
          "indexed": true,
          "internalType": "address",
          "name": "nft",
          "type": "address"
        },
        {
          "indexed": false,
          "internalType": "uint256",
          "name": "price",
          "type": "uint256"
        },
        {
          "indexed": true,
          "internalType": "address",
          "name": "seller",
          "type": "address"
        },
        {
          "indexed": true,
          "internalType": "address",
          "name": "buyer",
          "type": "address"
        }
      ],
      "name": "Bought",
      "type": "event"
    },
    {
      "anonymous": false,
      "inputs": [
        {
          "indexed": false,
          "internalType": "uint256",
          "name": "nftId",
          "type": "uint256"
        },
        {
          "indexed": true,
          "internalType": "address",
          "name": "nftAddress",
          "type": "address"
        },
        {
          "indexed": false,
          "internalType": "uint256",
          "name": "price",
          "type": "uint256"
        },
        {
          "indexed": true,
          "internalType": "address",
          "name": "creator",
          "type": "address"
        }
      ],
      "name": "Created",
      "type": "event"
    },
    {
      "anonymous": false,
      "inputs": [
        {
          "indexed": true,
          "internalType": "address",
          "name": "previousOwner",
          "type": "address"
        },
        {
          "indexed": true,
          "internalType": "address",
          "name": "newOwner",
          "type": "address"
        }
      ],
      "name": "OwnershipTransferred",
      "type": "event"
    },
    {
      "inputs": [
        {
          "internalType": "uint256",
          "name": "_id",
          "type": "uint256"
        },
        {
          "internalType": "uint256",
          "name": "_amount",
          "type": "uint256"
        },
        {
          "internalType": "bytes",
          "name": "_data",
          "type": "bytes"
        }
      ],
      "name": "buy",
      "outputs": [],
      "stateMutability": "payable",
      "type": "function"
    },
    {
      "inputs": [],
      "name": "feePercent",
      "outputs": [
        {
          "internalType": "uint256",
          "name": "",
          "type": "uint256"
        }
      ],
      "stateMutability": "view",
      "type": "function"
    },
    {
      "inputs": [],
      "name": "getBalance",
      "outputs": [
        {
          "internalType": "uint256",
          "name": "",
          "type": "uint256"
        }
      ],
      "stateMutability": "view",
      "type": "function"
    },
    {
      "inputs": [],
      "name": "getCurrentId",
      "outputs": [
        {
          "internalType": "uint256",
          "name": "",
          "type": "uint256"
        }
      ],
      "stateMutability": "view",
      "type": "function"
    },
    {
      "inputs": [
        {
          "internalType": "string",
          "name": "_newTokenUri",
          "type": "string"
        },
        {
          "internalType": "uint256",
          "name": "_price",
          "type": "uint256"
        }
      ],
      "name": "initialMint",
      "outputs": [],
      "stateMutability": "nonpayable",
      "type": "function"
    },
    {
      "inputs": [],
      "name": "owner",
      "outputs": [
        {
          "internalType": "address",
          "name": "",
          "type": "address"
        }
      ],
      "stateMutability": "view",
      "type": "function"
    },
    {
      "inputs": [],
      "name": "renounceOwnership",
      "outputs": [],
      "stateMutability": "nonpayable",
      "type": "function"
    },
    {
      "inputs": [
        {
          "internalType": "address",
          "name": "newOwner",
          "type": "address"
        }
      ],
      "name": "transferOwnership",
      "outputs": [],
      "stateMutability": "nonpayable",
      "type": "function"
    },
    {
      "inputs": [
        {
          "internalType": "address",
          "name": "recipient",
          "type": "address"
        }
      ],
      "name": "withdraw",
      "outputs": [
        {
          "internalType": "bool",
          "name": "",
          "type": "bool"
        }
      ],
      "stateMutability": "nonpayable",
      "type": "function"
    }
  ],
  "bytecode": "0x60806040523480156200001157600080fd5b5060405162001695380380620016958339818101604052810190620000379190620001a1565b620000576200004b620000a760201b60201c565b620000af60201b60201c565b81600160006101000a81548173ffffffffffffffffffffffffffffffffffffffff021916908373ffffffffffffffffffffffffffffffffffffffff16021790555080600281905550505062000268565b600033905090565b60008060009054906101000a900473ffffffffffffffffffffffffffffffffffffffff169050816000806101000a81548173ffffffffffffffffffffffffffffffffffffffff021916908373ffffffffffffffffffffffffffffffffffffffff1602179055508173ffffffffffffffffffffffffffffffffffffffff168173ffffffffffffffffffffffffffffffffffffffff167f8be0079c531659141344cd1fd0a4f28419497f9722a3daafe3b4186f6b6457e060405160405180910390a35050565b600081519050620001848162000234565b92915050565b6000815190506200019b816200024e565b92915050565b60008060408385031215620001b557600080fd5b6000620001c58582860162000173565b9250506020620001d8858286016200018a565b9150509250929050565b6000620001ef826200020a565b9050919050565b60006200020382620001e2565b9050919050565b600073ffffffffffffffffffffffffffffffffffffffff82169050919050565b6000819050919050565b6200023f81620001f6565b81146200024b57600080fd5b50565b62000259816200022a565b81146200026557600080fd5b50565b61141d80620002786000396000f3fe6080604052600436106100865760003560e01c80636c143862116100595780636c14386214610138578063715018a6146101635780637fd6f15c1461017a5780638da5cb5b146101a5578063f2fde38b146101d057610086565b806301ccb99b1461008b57806312065fe0146100b45780631efd73a5146100df57806351cff8d9146100fb575b600080fd5b34801561009757600080fd5b506100b260048036038101906100ad9190610bd6565b6101f9565b005b3480156100c057600080fd5b506100c96103ce565b6040516100d69190610f77565b60405180910390f35b6100f960048036038101906100f49190610c2a565b6103d6565b005b34801561010757600080fd5b50610122600480360381019061011d9190610bad565b61068b565b60405161012f9190610ebc565b60405180910390f35b34801561014457600080fd5b5061014d610803565b60405161015a9190610f77565b60405180910390f35b34801561016f57600080fd5b50610178610814565b005b34801561018657600080fd5b5061018f61089c565b60405161019c9190610f77565b60405180910390f35b3480156101b157600080fd5b506101ba6108a2565b6040516101c79190610e17565b60405180910390f35b3480156101dc57600080fd5b506101f760048036038101906101f29190610bad565b6108cb565b005b61020360046109c3565b600160009054906101000a900473ffffffffffffffffffffffffffffffffffffffff1673ffffffffffffffffffffffffffffffffffffffff1663c06399aa3361024c60046109d9565b856040518463ffffffff1660e01b815260040161026b93929190610e32565b600060405180830381600087803b15801561028557600080fd5b505af1158015610299573d6000803e3d6000fd5b5050505060405180604001604052808281526020013373ffffffffffffffffffffffffffffffffffffffff16815250600360006102d660046109d9565b81526020019081526020016000206000820151816000015560208201518160010160006101000a81548173ffffffffffffffffffffffffffffffffffffffff021916908373ffffffffffffffffffffffffffffffffffffffff1602179055509050503373ffffffffffffffffffffffffffffffffffffffff16600160009054906101000a900473ffffffffffffffffffffffffffffffffffffffff1673ffffffffffffffffffffffffffffffffffffffff167fc27305bff0423109454123a4e1952db350d102aa684e756cc970c7bbff2698116103b360046109d9565b846040516103c2929190610f92565b60405180910390a35050565b600047905090565b600360008481526020019081526020016000206000015434101561042f576040517f08c379a000000000000000000000000000000000000000000000000000000000815260040161042690610ed7565b60405180910390fd5b60006003600085815260200190815260200160002060010160009054906101000a900473ffffffffffffffffffffffffffffffffffffffff169050600160009054906101000a900473ffffffffffffffffffffffffffffffffffffffff1673ffffffffffffffffffffffffffffffffffffffff1663731133e9338686866040518563ffffffff1660e01b81526004016104cb9493929190610e70565b600060405180830381600087803b1580156104e557600080fd5b505af11580156104f9573d6000803e3d6000fd5b5050505060008173ffffffffffffffffffffffffffffffffffffffff16606460025460646105279190611110565b3461053291906110b6565b61053c9190611085565b60405161054890610e02565b60006040518083038185875af1925050503d8060008114610585576040519150601f19603f3d011682016040523d82523d6000602084013e61058a565b606091505b50509050806105ce576040517f08c379a00000000000000000000000000000000000000000000000000000000081526004016105c590610f37565b60405180910390fd5b3373ffffffffffffffffffffffffffffffffffffffff163073ffffffffffffffffffffffffffffffffffffffff16600160009054906101000a900473ffffffffffffffffffffffffffffffffffffffff1673ffffffffffffffffffffffffffffffffffffffff167f4546d34ba50fa70893d25ac1a7fee935f392ee488214b637211f2337e2064e3388600360008b81526020019081526020016000206000015460405161067c929190610f92565b60405180910390a45050505050565b60006106956109e7565b73ffffffffffffffffffffffffffffffffffffffff166106b36108a2565b73ffffffffffffffffffffffffffffffffffffffff1614610709576040517f08c379a000000000000000000000000000000000000000000000000000000000815260040161070090610f17565b60405180910390fd5b600047101561074d576040517f08c379a000000000000000000000000000000000000000000000000000000000815260040161074490610f57565b60405180910390fd5b60008273ffffffffffffffffffffffffffffffffffffffff164760405161077390610e02565b60006040518083038185875af1925050503d80600081146107b0576040519150601f19603f3d011682016040523d82523d6000602084013e6107b5565b606091505b50509050806107f9576040517f08c379a00000000000000000000000000000000000000000000000000000000081526004016107f090610f37565b60405180910390fd5b6001915050919050565b600061080f60046109d9565b905090565b61081c6109e7565b73ffffffffffffffffffffffffffffffffffffffff1661083a6108a2565b73ffffffffffffffffffffffffffffffffffffffff1614610890576040517f08c379a000000000000000000000000000000000000000000000000000000000815260040161088790610f17565b60405180910390fd5b61089a60006109ef565b565b60025481565b60008060009054906101000a900473ffffffffffffffffffffffffffffffffffffffff16905090565b6108d36109e7565b73ffffffffffffffffffffffffffffffffffffffff166108f16108a2565b73ffffffffffffffffffffffffffffffffffffffff1614610947576040517f08c379a000000000000000000000000000000000000000000000000000000000815260040161093e90610f17565b60405180910390fd5b600073ffffffffffffffffffffffffffffffffffffffff168173ffffffffffffffffffffffffffffffffffffffff1614156109b7576040517f08c379a00000000000000000000000000000000000000000000000000000000081526004016109ae90610ef7565b60405180910390fd5b6109c0816109ef565b50565b6001816000016000828254019250508190555050565b600081600001549050919050565b600033905090565b60008060009054906101000a900473ffffffffffffffffffffffffffffffffffffffff169050816000806101000a81548173ffffffffffffffffffffffffffffffffffffffff021916908373ffffffffffffffffffffffffffffffffffffffff1602179055508173ffffffffffffffffffffffffffffffffffffffff168173ffffffffffffffffffffffffffffffffffffffff167f8be0079c531659141344cd1fd0a4f28419497f9722a3daafe3b4186f6b6457e060405160405180910390a35050565b6000610ac6610ac184610fe0565b610fbb565b905082815260208101848484011115610ade57600080fd5b610ae984828561118c565b509392505050565b6000610b04610aff84611011565b610fbb565b905082815260208101848484011115610b1c57600080fd5b610b2784828561118c565b509392505050565b600081359050610b3e816113b9565b92915050565b600082601f830112610b5557600080fd5b8135610b65848260208601610ab3565b91505092915050565b600082601f830112610b7f57600080fd5b8135610b8f848260208601610af1565b91505092915050565b600081359050610ba7816113d0565b92915050565b600060208284031215610bbf57600080fd5b6000610bcd84828501610b2f565b91505092915050565b60008060408385031215610be957600080fd5b600083013567ffffffffffffffff811115610c0357600080fd5b610c0f85828601610b6e565b9250506020610c2085828601610b98565b9150509250929050565b600080600060608486031215610c3f57600080fd5b6000610c4d86828701610b98565b9350506020610c5e86828701610b98565b925050604084013567ffffffffffffffff811115610c7b57600080fd5b610c8786828701610b44565b9150509250925092565b610c9a81611144565b82525050565b610ca981611156565b82525050565b6000610cba82611042565b610cc48185611058565b9350610cd481856020860161119b565b610cdd8161128c565b840191505092915050565b6000610cf38261104d565b610cfd8185611074565b9350610d0d81856020860161119b565b610d168161128c565b840191505092915050565b6000610d2e602d83611074565b9150610d398261129d565b604082019050919050565b6000610d51602683611074565b9150610d5c826112ec565b604082019050919050565b6000610d74602083611074565b9150610d7f8261133b565b602082019050919050565b6000610d97601283611074565b9150610da282611364565b602082019050919050565b6000610dba600083611069565b9150610dc58261138d565b600082019050919050565b6000610ddd600f83611074565b9150610de882611390565b602082019050919050565b610dfc81611182565b82525050565b6000610e0d82610dad565b9150819050919050565b6000602082019050610e2c6000830184610c91565b92915050565b6000606082019050610e476000830186610c91565b610e546020830185610df3565b8181036040830152610e668184610ce8565b9050949350505050565b6000608082019050610e856000830187610c91565b610e926020830186610df3565b610e9f6040830185610df3565b8181036060830152610eb18184610caf565b905095945050505050565b6000602082019050610ed16000830184610ca0565b92915050565b60006020820190508181036000830152610ef081610d21565b9050919050565b60006020820190508181036000830152610f1081610d44565b9050919050565b60006020820190508181036000830152610f3081610d67565b9050919050565b60006020820190508181036000830152610f5081610d8a565b9050919050565b60006020820190508181036000830152610f7081610dd0565b9050919050565b6000602082019050610f8c6000830184610df3565b92915050565b6000604082019050610fa76000830185610df3565b610fb46020830184610df3565b9392505050565b6000610fc5610fd6565b9050610fd182826111ce565b919050565b6000604051905090565b600067ffffffffffffffff821115610ffb57610ffa61125d565b5b6110048261128c565b9050602081019050919050565b600067ffffffffffffffff82111561102c5761102b61125d565b5b6110358261128c565b9050602081019050919050565b600081519050919050565b600081519050919050565b600082825260208201905092915050565b600081905092915050565b600082825260208201905092915050565b600061109082611182565b915061109b83611182565b9250826110ab576110aa61122e565b5b828204905092915050565b60006110c182611182565b91506110cc83611182565b9250817fffffffffffffffffffffffffffffffffffffffffffffffffffffffffffffffff0483118215151615611105576111046111ff565b5b828202905092915050565b600061111b82611182565b915061112683611182565b925082821015611139576111386111ff565b5b828203905092915050565b600061114f82611162565b9050919050565b60008115159050919050565b600073ffffffffffffffffffffffffffffffffffffffff82169050919050565b6000819050919050565b82818337600083830152505050565b60005b838110156111b957808201518184015260208101905061119e565b838111156111c8576000848401525b50505050565b6111d78261128c565b810181811067ffffffffffffffff821117156111f6576111f561125d565b5b80604052505050565b7f4e487b7100000000000000000000000000000000000000000000000000000000600052601160045260246000fd5b7f4e487b7100000000000000000000000000000000000000000000000000000000600052601260045260246000fd5b7f4e487b7100000000000000000000000000000000000000000000000000000000600052604160045260246000fd5b6000601f19601f8301169050919050565b7f596f75206e656564206d6f72652063757272656e637920666f72206d616b652060008201527f61207472616e73616374696f6e00000000000000000000000000000000000000602082015250565b7f4f776e61626c653a206e6577206f776e657220697320746865207a65726f206160008201527f6464726573730000000000000000000000000000000000000000000000000000602082015250565b7f4f776e61626c653a2063616c6c6572206973206e6f7420746865206f776e6572600082015250565b7f5472616e73616374696f6e206661696c65640000000000000000000000000000600082015250565b50565b7f42616c616e6365206973207a65726f0000000000000000000000000000000000600082015250565b6113c281611144565b81146113cd57600080fd5b50565b6113d981611182565b81146113e457600080fd5b5056fea2646970667358221220eecc7282c0c0a5a3c39a34edb94f123b624975834c5e0d9d50ee4b8b8e6214d464736f6c63430008040033",
  "linkReferences": {},
  "deployedLinkReferences": {}
}