{
  "_format": "hh-sol-artifact-1",
  "contractName": "Marketplace",
  "sourceName": "contracts/Marketplace.sol",
  "abi": [
    {
      "inputs": [
        {
          "internalType": "contract IToken",
          "name": "_token",
          "type": "address"
        },
        {
          "internalType": "uint256",
          "name": "_feePercent",
          "type": "uint256"
        }
      ],
      "stateMutability": "nonpayable",
      "type": "constructor"
    },
    {
      "anonymous": false,
      "inputs": [
        {
          "indexed": false,
          "internalType": "uint256",
          "name": "nftId",
          "type": "uint256"
        },
        {
          "indexed": true,
          "internalType": "address",
          "name": "nft",
          "type": "address"
        },
        {
          "indexed": false,
          "internalType": "uint256",
          "name": "price",
          "type": "uint256"
        },
        {
          "indexed": true,
          "internalType": "address",
          "name": "seller",
          "type": "address"
        },
        {
          "indexed": true,
          "internalType": "address",
          "name": "buyer",
          "type": "address"
        }
      ],
      "name": "Bought",
      "type": "event"
    },
    {
      "anonymous": false,
      "inputs": [
        {
          "indexed": false,
          "internalType": "uint256",
          "name": "nftId",
          "type": "uint256"
        },
        {
          "indexed": true,
          "internalType": "address",
          "name": "nftAddress",
          "type": "address"
        },
        {
          "indexed": false,
          "internalType": "uint256",
          "name": "price",
          "type": "uint256"
        },
        {
          "indexed": true,
          "internalType": "address",
          "name": "creator",
          "type": "address"
        }
      ],
      "name": "Created",
      "type": "event"
    },
    {
      "anonymous": false,
      "inputs": [
        {
          "indexed": true,
          "internalType": "address",
          "name": "previousOwner",
          "type": "address"
        },
        {
          "indexed": true,
          "internalType": "address",
          "name": "newOwner",
          "type": "address"
        }
      ],
      "name": "OwnershipTransferred",
      "type": "event"
    },
    {
      "inputs": [
        {
          "internalType": "uint256",
          "name": "_id",
          "type": "uint256"
        },
        {
          "internalType": "uint256",
          "name": "_amount",
          "type": "uint256"
        },
        {
          "internalType": "bytes",
          "name": "_data",
          "type": "bytes"
        }
      ],
      "name": "buy",
      "outputs": [],
      "stateMutability": "payable",
      "type": "function"
    },
    {
      "inputs": [],
      "name": "feePercent",
      "outputs": [
        {
          "internalType": "uint256",
          "name": "",
          "type": "uint256"
        }
      ],
      "stateMutability": "view",
      "type": "function"
    },
    {
      "inputs": [
        {
          "internalType": "string",
          "name": "_newTokenUri",
          "type": "string"
        },
        {
          "internalType": "uint256",
          "name": "_price",
          "type": "uint256"
        }
      ],
      "name": "initialMint",
      "outputs": [],
      "stateMutability": "nonpayable",
      "type": "function"
    },
    {
      "inputs": [],
      "name": "owner",
      "outputs": [
        {
          "internalType": "address",
          "name": "",
          "type": "address"
        }
      ],
      "stateMutability": "view",
      "type": "function"
    },
    {
      "inputs": [],
      "name": "renounceOwnership",
      "outputs": [],
      "stateMutability": "nonpayable",
      "type": "function"
    },
    {
      "inputs": [
        {
          "internalType": "address",
          "name": "newOwner",
          "type": "address"
        }
      ],
      "name": "transferOwnership",
      "outputs": [],
      "stateMutability": "nonpayable",
      "type": "function"
    },
    {
      "inputs": [
        {
          "internalType": "address",
          "name": "recipient",
          "type": "address"
        }
      ],
      "name": "withdraw",
      "outputs": [
        {
          "internalType": "bool",
          "name": "",
          "type": "bool"
        }
      ],
      "stateMutability": "nonpayable",
      "type": "function"
    }
  ],
  "bytecode": "0x60806040523480156200001157600080fd5b5060405162001610380380620016108339818101604052810190620000379190620001a1565b620000576200004b620000a760201b60201c565b620000af60201b60201c565b81600160006101000a81548173ffffffffffffffffffffffffffffffffffffffff021916908373ffffffffffffffffffffffffffffffffffffffff16021790555080600281905550505062000268565b600033905090565b60008060009054906101000a900473ffffffffffffffffffffffffffffffffffffffff169050816000806101000a81548173ffffffffffffffffffffffffffffffffffffffff021916908373ffffffffffffffffffffffffffffffffffffffff1602179055508173ffffffffffffffffffffffffffffffffffffffff168173ffffffffffffffffffffffffffffffffffffffff167f8be0079c531659141344cd1fd0a4f28419497f9722a3daafe3b4186f6b6457e060405160405180910390a35050565b600081519050620001848162000234565b92915050565b6000815190506200019b816200024e565b92915050565b60008060408385031215620001b557600080fd5b6000620001c58582860162000173565b9250506020620001d8858286016200018a565b9150509250929050565b6000620001ef826200020a565b9050919050565b60006200020382620001e2565b9050919050565b600073ffffffffffffffffffffffffffffffffffffffff82169050919050565b6000819050919050565b6200023f81620001f6565b81146200024b57600080fd5b50565b62000259816200022a565b81146200026557600080fd5b50565b61139880620002786000396000f3fe6080604052600436106100705760003560e01c8063715018a61161004e578063715018a6146100f75780637fd6f15c1461010e5780638da5cb5b14610139578063f2fde38b1461016457610070565b806301ccb99b146100755780631efd73a51461009e57806351cff8d9146100ba575b600080fd5b34801561008157600080fd5b5061009c60048036038101906100979190610b51565b61018d565b005b6100b860048036038101906100b39190610ba5565b610362565b005b3480156100c657600080fd5b506100e160048036038101906100dc9190610b28565b610617565b6040516100ee9190610e37565b60405180910390f35b34801561010357600080fd5b5061010c61078f565b005b34801561011a57600080fd5b50610123610817565b6040516101309190610ef2565b60405180910390f35b34801561014557600080fd5b5061014e61081d565b60405161015b9190610d92565b60405180910390f35b34801561017057600080fd5b5061018b60048036038101906101869190610b28565b610846565b005b610197600461093e565b600160009054906101000a900473ffffffffffffffffffffffffffffffffffffffff1673ffffffffffffffffffffffffffffffffffffffff1663c06399aa336101e06004610954565b856040518463ffffffff1660e01b81526004016101ff93929190610dad565b600060405180830381600087803b15801561021957600080fd5b505af115801561022d573d6000803e3d6000fd5b5050505060405180604001604052808281526020013373ffffffffffffffffffffffffffffffffffffffff168152506003600061026a6004610954565b81526020019081526020016000206000820151816000015560208201518160010160006101000a81548173ffffffffffffffffffffffffffffffffffffffff021916908373ffffffffffffffffffffffffffffffffffffffff1602179055509050503373ffffffffffffffffffffffffffffffffffffffff16600160009054906101000a900473ffffffffffffffffffffffffffffffffffffffff1673ffffffffffffffffffffffffffffffffffffffff167fc27305bff0423109454123a4e1952db350d102aa684e756cc970c7bbff2698116103476004610954565b84604051610356929190610f0d565b60405180910390a35050565b60036000848152602001908152602001600020600001543410156103bb576040517f08c379a00000000000000000000000000000000000000000000000000000000081526004016103b290610e52565b60405180910390fd5b60006003600085815260200190815260200160002060010160009054906101000a900473ffffffffffffffffffffffffffffffffffffffff169050600160009054906101000a900473ffffffffffffffffffffffffffffffffffffffff1673ffffffffffffffffffffffffffffffffffffffff1663731133e9338686866040518563ffffffff1660e01b81526004016104579493929190610deb565b600060405180830381600087803b15801561047157600080fd5b505af1158015610485573d6000803e3d6000fd5b5050505060008173ffffffffffffffffffffffffffffffffffffffff16606460025460646104b3919061108b565b346104be9190611031565b6104c89190611000565b6040516104d490610d7d565b60006040518083038185875af1925050503d8060008114610511576040519150601f19603f3d011682016040523d82523d6000602084013e610516565b606091505b505090508061055a576040517f08c379a000000000000000000000000000000000000000000000000000000000815260040161055190610eb2565b60405180910390fd5b3373ffffffffffffffffffffffffffffffffffffffff163073ffffffffffffffffffffffffffffffffffffffff16600160009054906101000a900473ffffffffffffffffffffffffffffffffffffffff1673ffffffffffffffffffffffffffffffffffffffff167f4546d34ba50fa70893d25ac1a7fee935f392ee488214b637211f2337e2064e3388600360008b815260200190815260200160002060000154604051610608929190610f0d565b60405180910390a45050505050565b6000610621610962565b73ffffffffffffffffffffffffffffffffffffffff1661063f61081d565b73ffffffffffffffffffffffffffffffffffffffff1614610695576040517f08c379a000000000000000000000000000000000000000000000000000000000815260040161068c90610e92565b60405180910390fd5b60004710156106d9576040517f08c379a00000000000000000000000000000000000000000000000000000000081526004016106d090610ed2565b60405180910390fd5b60008273ffffffffffffffffffffffffffffffffffffffff16476040516106ff90610d7d565b60006040518083038185875af1925050503d806000811461073c576040519150601f19603f3d011682016040523d82523d6000602084013e610741565b606091505b5050905080610785576040517f08c379a000000000000000000000000000000000000000000000000000000000815260040161077c90610eb2565b60405180910390fd5b6001915050919050565b610797610962565b73ffffffffffffffffffffffffffffffffffffffff166107b561081d565b73ffffffffffffffffffffffffffffffffffffffff161461080b576040517f08c379a000000000000000000000000000000000000000000000000000000000815260040161080290610e92565b60405180910390fd5b610815600061096a565b565b60025481565b60008060009054906101000a900473ffffffffffffffffffffffffffffffffffffffff16905090565b61084e610962565b73ffffffffffffffffffffffffffffffffffffffff1661086c61081d565b73ffffffffffffffffffffffffffffffffffffffff16146108c2576040517f08c379a00000000000000000000000000000000000000000000000000000000081526004016108b990610e92565b60405180910390fd5b600073ffffffffffffffffffffffffffffffffffffffff168173ffffffffffffffffffffffffffffffffffffffff161415610932576040517f08c379a000000000000000000000000000000000000000000000000000000000815260040161092990610e72565b60405180910390fd5b61093b8161096a565b50565b6001816000016000828254019250508190555050565b600081600001549050919050565b600033905090565b60008060009054906101000a900473ffffffffffffffffffffffffffffffffffffffff169050816000806101000a81548173ffffffffffffffffffffffffffffffffffffffff021916908373ffffffffffffffffffffffffffffffffffffffff1602179055508173ffffffffffffffffffffffffffffffffffffffff168173ffffffffffffffffffffffffffffffffffffffff167f8be0079c531659141344cd1fd0a4f28419497f9722a3daafe3b4186f6b6457e060405160405180910390a35050565b6000610a41610a3c84610f5b565b610f36565b905082815260208101848484011115610a5957600080fd5b610a64848285611107565b509392505050565b6000610a7f610a7a84610f8c565b610f36565b905082815260208101848484011115610a9757600080fd5b610aa2848285611107565b509392505050565b600081359050610ab981611334565b92915050565b600082601f830112610ad057600080fd5b8135610ae0848260208601610a2e565b91505092915050565b600082601f830112610afa57600080fd5b8135610b0a848260208601610a6c565b91505092915050565b600081359050610b228161134b565b92915050565b600060208284031215610b3a57600080fd5b6000610b4884828501610aaa565b91505092915050565b60008060408385031215610b6457600080fd5b600083013567ffffffffffffffff811115610b7e57600080fd5b610b8a85828601610ae9565b9250506020610b9b85828601610b13565b9150509250929050565b600080600060608486031215610bba57600080fd5b6000610bc886828701610b13565b9350506020610bd986828701610b13565b925050604084013567ffffffffffffffff811115610bf657600080fd5b610c0286828701610abf565b9150509250925092565b610c15816110bf565b82525050565b610c24816110d1565b82525050565b6000610c3582610fbd565b610c3f8185610fd3565b9350610c4f818560208601611116565b610c5881611207565b840191505092915050565b6000610c6e82610fc8565b610c788185610fef565b9350610c88818560208601611116565b610c9181611207565b840191505092915050565b6000610ca9602d83610fef565b9150610cb482611218565b604082019050919050565b6000610ccc602683610fef565b9150610cd782611267565b604082019050919050565b6000610cef602083610fef565b9150610cfa826112b6565b602082019050919050565b6000610d12601283610fef565b9150610d1d826112df565b602082019050919050565b6000610d35600083610fe4565b9150610d4082611308565b600082019050919050565b6000610d58600f83610fef565b9150610d638261130b565b602082019050919050565b610d77816110fd565b82525050565b6000610d8882610d28565b9150819050919050565b6000602082019050610da76000830184610c0c565b92915050565b6000606082019050610dc26000830186610c0c565b610dcf6020830185610d6e565b8181036040830152610de18184610c63565b9050949350505050565b6000608082019050610e006000830187610c0c565b610e0d6020830186610d6e565b610e1a6040830185610d6e565b8181036060830152610e2c8184610c2a565b905095945050505050565b6000602082019050610e4c6000830184610c1b565b92915050565b60006020820190508181036000830152610e6b81610c9c565b9050919050565b60006020820190508181036000830152610e8b81610cbf565b9050919050565b60006020820190508181036000830152610eab81610ce2565b9050919050565b60006020820190508181036000830152610ecb81610d05565b9050919050565b60006020820190508181036000830152610eeb81610d4b565b9050919050565b6000602082019050610f076000830184610d6e565b92915050565b6000604082019050610f226000830185610d6e565b610f2f6020830184610d6e565b9392505050565b6000610f40610f51565b9050610f4c8282611149565b919050565b6000604051905090565b600067ffffffffffffffff821115610f7657610f756111d8565b5b610f7f82611207565b9050602081019050919050565b600067ffffffffffffffff821115610fa757610fa66111d8565b5b610fb082611207565b9050602081019050919050565b600081519050919050565b600081519050919050565b600082825260208201905092915050565b600081905092915050565b600082825260208201905092915050565b600061100b826110fd565b9150611016836110fd565b925082611026576110256111a9565b5b828204905092915050565b600061103c826110fd565b9150611047836110fd565b9250817fffffffffffffffffffffffffffffffffffffffffffffffffffffffffffffffff04831182151516156110805761107f61117a565b5b828202905092915050565b6000611096826110fd565b91506110a1836110fd565b9250828210156110b4576110b361117a565b5b828203905092915050565b60006110ca826110dd565b9050919050565b60008115159050919050565b600073ffffffffffffffffffffffffffffffffffffffff82169050919050565b6000819050919050565b82818337600083830152505050565b60005b83811015611134578082015181840152602081019050611119565b83811115611143576000848401525b50505050565b61115282611207565b810181811067ffffffffffffffff82111715611171576111706111d8565b5b80604052505050565b7f4e487b7100000000000000000000000000000000000000000000000000000000600052601160045260246000fd5b7f4e487b7100000000000000000000000000000000000000000000000000000000600052601260045260246000fd5b7f4e487b7100000000000000000000000000000000000000000000000000000000600052604160045260246000fd5b6000601f19601f8301169050919050565b7f596f75206e656564206d6f72652063757272656e637920666f72206d616b652060008201527f61207472616e73616374696f6e00000000000000000000000000000000000000602082015250565b7f4f776e61626c653a206e6577206f776e657220697320746865207a65726f206160008201527f6464726573730000000000000000000000000000000000000000000000000000602082015250565b7f4f776e61626c653a2063616c6c6572206973206e6f7420746865206f776e6572600082015250565b7f5472616e73616374696f6e206661696c65640000000000000000000000000000600082015250565b50565b7f42616c616e6365206973207a65726f0000000000000000000000000000000000600082015250565b61133d816110bf565b811461134857600080fd5b50565b611354816110fd565b811461135f57600080fd5b5056fea264697066735822122090d785f6cf3d766112c91f959e1a8b4b826300f650fb55e988f1bf0d1fc9d50c64736f6c63430008040033",
  "linkReferences": {},
  "deployedLinkReferences": {}
}