{
  "_format": "hh-sol-artifact-1",
  "contractName": "Marketplace",
  "sourceName": "contracts/Marketplace.sol",
  "abi": [
    {
      "inputs": [
        {
          "internalType": "contract IToken",
          "name": "token",
          "type": "address"
        },
        {
          "internalType": "uint256",
          "name": "_feePercent",
          "type": "uint256"
        }
      ],
      "stateMutability": "nonpayable",
      "type": "constructor"
    },
    {
      "anonymous": false,
      "inputs": [
        {
          "indexed": false,
          "internalType": "uint256",
          "name": "nftId",
          "type": "uint256"
        },
        {
          "indexed": true,
          "internalType": "address",
          "name": "nft",
          "type": "address"
        },
        {
          "indexed": false,
          "internalType": "uint256",
          "name": "price",
          "type": "uint256"
        },
        {
          "indexed": true,
          "internalType": "address",
          "name": "seller",
          "type": "address"
        },
        {
          "indexed": true,
          "internalType": "address",
          "name": "buyer",
          "type": "address"
        }
      ],
      "name": "Bought",
      "type": "event"
    },
    {
      "inputs": [
        {
          "internalType": "uint256",
          "name": "_id",
          "type": "uint256"
        },
        {
          "internalType": "uint256",
          "name": "_amount",
          "type": "uint256"
        },
        {
          "internalType": "string",
          "name": "_uri",
          "type": "string"
        },
        {
          "internalType": "bytes",
          "name": "_data",
          "type": "bytes"
        }
      ],
      "name": "buy",
      "outputs": [],
      "stateMutability": "payable",
      "type": "function"
    },
    {
      "inputs": [],
      "name": "feeAccount",
      "outputs": [
        {
          "internalType": "address payable",
          "name": "",
          "type": "address"
        }
      ],
      "stateMutability": "view",
      "type": "function"
    },
    {
      "inputs": [],
      "name": "feePercent",
      "outputs": [
        {
          "internalType": "uint256",
          "name": "",
          "type": "uint256"
        }
      ],
      "stateMutability": "view",
      "type": "function"
    },
    {
      "inputs": [
        {
          "internalType": "string",
          "name": "_newTokenUri",
          "type": "string"
        },
        {
          "internalType": "uint256",
          "name": "_price",
          "type": "uint256"
        }
      ],
      "name": "initialMint",
      "outputs": [],
      "stateMutability": "nonpayable",
      "type": "function"
    }
  ],
  "bytecode": "0x608060405234801561001057600080fd5b50604051610ba0380380610ba0833981810160405281019061003291906100ab565b33600160006101000a81548173ffffffffffffffffffffffffffffffffffffffff021916908373ffffffffffffffffffffffffffffffffffffffff160217905550806002819055505050610163565b60008151905061009081610135565b92915050565b6000815190506100a58161014c565b92915050565b600080604083850312156100be57600080fd5b60006100cc85828601610081565b92505060206100dd85828601610096565b9150509250929050565b60006100f28261010b565b9050919050565b6000610104826100e7565b9050919050565b600073ffffffffffffffffffffffffffffffffffffffff82169050919050565b6000819050919050565b61013e816100f9565b811461014957600080fd5b50565b6101558161012b565b811461016057600080fd5b50565b610a2e806101726000396000f3fe60806040526004361061003f5760003560e01c806301ccb99b146100445780632fb7c6521461006d57806365e17c9d146100895780637fd6f15c146100b4575b600080fd5b34801561005057600080fd5b5061006b60048036038101906100669190610520565b6100df565b005b61008760048036038101906100829190610574565b61024d565b005b34801561009557600080fd5b5061009e6103eb565b6040516100ab91906106c9565b60405180910390f35b3480156100c057600080fd5b506100c9610411565b6040516100d6919061078e565b60405180910390f35b6100e96004610417565b60008054906101000a900473ffffffffffffffffffffffffffffffffffffffff1673ffffffffffffffffffffffffffffffffffffffff1663c06399aa33610130600461042d565b856040518463ffffffff1660e01b815260040161014f939291906106e4565b600060405180830381600087803b15801561016957600080fd5b505af115801561017d573d6000803e3d6000fd5b505050508060036000610190600461042d565b8152602001908152602001600020819055503373ffffffffffffffffffffffffffffffffffffffff163073ffffffffffffffffffffffffffffffffffffffff1660008054906101000a900473ffffffffffffffffffffffffffffffffffffffff1673ffffffffffffffffffffffffffffffffffffffff167f4546d34ba50fa70893d25ac1a7fee935f392ee488214b637211f2337e2064e33610232600461042d565b856040516102419291906107a9565b60405180910390a45050565b60036000858152602001908152602001600020543410156102a3576040517f08c379a000000000000000000000000000000000000000000000000000000000815260040161029a9061076e565b60405180910390fd5b60008054906101000a900473ffffffffffffffffffffffffffffffffffffffff1673ffffffffffffffffffffffffffffffffffffffff1663731133e9338686856040518563ffffffff1660e01b81526004016103029493929190610722565b600060405180830381600087803b15801561031c57600080fd5b505af1158015610330573d6000803e3d6000fd5b505050503373ffffffffffffffffffffffffffffffffffffffff163073ffffffffffffffffffffffffffffffffffffffff1660008054906101000a900473ffffffffffffffffffffffffffffffffffffffff1673ffffffffffffffffffffffffffffffffffffffff167f4546d34ba50fa70893d25ac1a7fee935f392ee488214b637211f2337e2064e3387600360008a8152602001908152602001600020546040516103dd9291906107a9565b60405180910390a450505050565b600160009054906101000a900473ffffffffffffffffffffffffffffffffffffffff1681565b60025481565b6001816000016000828254019250508190555050565b600081600001549050919050565b600061044e610449846107f7565b6107d2565b90508281526020810184848401111561046657600080fd5b6104718482856108df565b509392505050565b600061048c61048784610828565b6107d2565b9050828152602081018484840111156104a457600080fd5b6104af8482856108df565b509392505050565b600082601f8301126104c857600080fd5b81356104d884826020860161043b565b91505092915050565b600082601f8301126104f257600080fd5b8135610502848260208601610479565b91505092915050565b60008135905061051a816109e1565b92915050565b6000806040838503121561053357600080fd5b600083013567ffffffffffffffff81111561054d57600080fd5b610559858286016104e1565b925050602061056a8582860161050b565b9150509250929050565b6000806000806080858703121561058a57600080fd5b60006105988782880161050b565b94505060206105a98782880161050b565b935050604085013567ffffffffffffffff8111156105c657600080fd5b6105d2878288016104e1565b925050606085013567ffffffffffffffff8111156105ef57600080fd5b6105fb878288016104b7565b91505092959194509250565b610610816108a3565b82525050565b61061f81610891565b82525050565b600061063082610859565b61063a818561086f565b935061064a8185602086016108ee565b61065381610981565b840191505092915050565b600061066982610864565b6106738185610880565b93506106838185602086016108ee565b61068c81610981565b840191505092915050565b60006106a4602d83610880565b91506106af82610992565b604082019050919050565b6106c3816108d5565b82525050565b60006020820190506106de6000830184610607565b92915050565b60006060820190506106f96000830186610616565b61070660208301856106ba565b8181036040830152610718818461065e565b9050949350505050565b60006080820190506107376000830187610616565b61074460208301866106ba565b61075160408301856106ba565b81810360608301526107638184610625565b905095945050505050565b6000602082019050818103600083015261078781610697565b9050919050565b60006020820190506107a360008301846106ba565b92915050565b60006040820190506107be60008301856106ba565b6107cb60208301846106ba565b9392505050565b60006107dc6107ed565b90506107e88282610921565b919050565b6000604051905090565b600067ffffffffffffffff82111561081257610811610952565b5b61081b82610981565b9050602081019050919050565b600067ffffffffffffffff82111561084357610842610952565b5b61084c82610981565b9050602081019050919050565b600081519050919050565b600081519050919050565b600082825260208201905092915050565b600082825260208201905092915050565b600061089c826108b5565b9050919050565b60006108ae826108b5565b9050919050565b600073ffffffffffffffffffffffffffffffffffffffff82169050919050565b6000819050919050565b82818337600083830152505050565b60005b8381101561090c5780820151818401526020810190506108f1565b8381111561091b576000848401525b50505050565b61092a82610981565b810181811067ffffffffffffffff8211171561094957610948610952565b5b80604052505050565b7f4e487b7100000000000000000000000000000000000000000000000000000000600052604160045260246000fd5b6000601f19601f8301169050919050565b7f596f75206e656564206d6f72652063757272656e637920666f72206d616b652060008201527f61207472616e73616374696f6e00000000000000000000000000000000000000602082015250565b6109ea816108d5565b81146109f557600080fd5b5056fea26469706673582212204c79be2f9827f6b6f9f5514af95bdbf41474d83122df002fc466f8a83df5d82f64736f6c63430008040033",
  "linkReferences": {},
  "deployedLinkReferences": {}
}