{
  "_format": "hh-sol-artifact-1",
  "contractName": "Marketplace",
  "sourceName": "contracts/Marketplace.sol",
  "abi": [
    {
      "inputs": [
        {
          "internalType": "contract IToken",
          "name": "token",
          "type": "address"
        },
        {
          "internalType": "uint256",
          "name": "_feePercent",
          "type": "uint256"
        }
      ],
      "stateMutability": "nonpayable",
      "type": "constructor"
    },
    {
      "anonymous": false,
      "inputs": [
        {
          "indexed": false,
          "internalType": "uint256",
          "name": "nftId",
          "type": "uint256"
        },
        {
          "indexed": true,
          "internalType": "address",
          "name": "nft",
          "type": "address"
        },
        {
          "indexed": false,
          "internalType": "uint256",
          "name": "price",
          "type": "uint256"
        },
        {
          "indexed": true,
          "internalType": "address",
          "name": "seller",
          "type": "address"
        },
        {
          "indexed": true,
          "internalType": "address",
          "name": "buyer",
          "type": "address"
        }
      ],
      "name": "Bought",
      "type": "event"
    },
    {
      "anonymous": false,
      "inputs": [
        {
          "indexed": true,
          "internalType": "address",
          "name": "previousOwner",
          "type": "address"
        },
        {
          "indexed": true,
          "internalType": "address",
          "name": "newOwner",
          "type": "address"
        }
      ],
      "name": "OwnershipTransferred",
      "type": "event"
    },
    {
      "inputs": [
        {
          "internalType": "uint256",
          "name": "_id",
          "type": "uint256"
        },
        {
          "internalType": "uint256",
          "name": "_amount",
          "type": "uint256"
        },
        {
          "internalType": "string",
          "name": "_uri",
          "type": "string"
        },
        {
          "internalType": "bytes",
          "name": "_data",
          "type": "bytes"
        }
      ],
      "name": "buy",
      "outputs": [],
      "stateMutability": "payable",
      "type": "function"
    },
    {
      "inputs": [],
      "name": "feePercent",
      "outputs": [
        {
          "internalType": "uint256",
          "name": "",
          "type": "uint256"
        }
      ],
      "stateMutability": "view",
      "type": "function"
    },
    {
      "inputs": [
        {
          "internalType": "string",
          "name": "_newTokenUri",
          "type": "string"
        },
        {
          "internalType": "uint256",
          "name": "_price",
          "type": "uint256"
        }
      ],
      "name": "initialMint",
      "outputs": [],
      "stateMutability": "nonpayable",
      "type": "function"
    },
    {
      "inputs": [],
      "name": "owner",
      "outputs": [
        {
          "internalType": "address",
          "name": "",
          "type": "address"
        }
      ],
      "stateMutability": "view",
      "type": "function"
    },
    {
      "inputs": [],
      "name": "renounceOwnership",
      "outputs": [],
      "stateMutability": "nonpayable",
      "type": "function"
    },
    {
      "inputs": [
        {
          "internalType": "address",
          "name": "newOwner",
          "type": "address"
        }
      ],
      "name": "transferOwnership",
      "outputs": [],
      "stateMutability": "nonpayable",
      "type": "function"
    },
    {
      "inputs": [
        {
          "internalType": "address",
          "name": "recipient",
          "type": "address"
        }
      ],
      "name": "withdraw",
      "outputs": [
        {
          "internalType": "bool",
          "name": "",
          "type": "bool"
        }
      ],
      "stateMutability": "nonpayable",
      "type": "function"
    }
  ],
  "bytecode": "0x60806040523480156200001157600080fd5b506040516200161338038062001613833981810160405281019062000037919062000160565b620000576200004b6200006660201b60201c565b6200006e60201b60201c565b80600281905550505062000227565b600033905090565b60008060009054906101000a900473ffffffffffffffffffffffffffffffffffffffff169050816000806101000a81548173ffffffffffffffffffffffffffffffffffffffff021916908373ffffffffffffffffffffffffffffffffffffffff1602179055508173ffffffffffffffffffffffffffffffffffffffff168173ffffffffffffffffffffffffffffffffffffffff167f8be0079c531659141344cd1fd0a4f28419497f9722a3daafe3b4186f6b6457e060405160405180910390a35050565b6000815190506200014381620001f3565b92915050565b6000815190506200015a816200020d565b92915050565b600080604083850312156200017457600080fd5b6000620001848582860162000132565b9250506020620001978582860162000149565b9150509250929050565b6000620001ae82620001c9565b9050919050565b6000620001c282620001a1565b9050919050565b600073ffffffffffffffffffffffffffffffffffffffff82169050919050565b6000819050919050565b620001fe81620001b5565b81146200020a57600080fd5b50565b6200021881620001e9565b81146200022457600080fd5b50565b6113dc80620002376000396000f3fe6080604052600436106100705760003560e01c8063715018a61161004e578063715018a6146100f75780637fd6f15c1461010e5780638da5cb5b14610139578063f2fde38b1461016457610070565b806301ccb99b146100755780632fb7c6521461009e57806351cff8d9146100ba575b600080fd5b34801561008157600080fd5b5061009c60048036038101906100979190610b69565b61018d565b005b6100b860048036038101906100b39190610bbd565b610379565b005b3480156100c657600080fd5b506100e160048036038101906100dc9190610b40565b61062f565b6040516100ee9190610e7b565b60405180910390f35b34801561010357600080fd5b5061010c6107a7565b005b34801561011a57600080fd5b5061012361082f565b6040516101309190610f36565b60405180910390f35b34801561014557600080fd5b5061014e610835565b60405161015b9190610dd6565b60405180910390f35b34801561017057600080fd5b5061018b60048036038101906101869190610b40565b61085e565b005b6101976004610956565b600160009054906101000a900473ffffffffffffffffffffffffffffffffffffffff1673ffffffffffffffffffffffffffffffffffffffff1663c06399aa336101e0600461096c565b856040518463ffffffff1660e01b81526004016101ff93929190610df1565b600060405180830381600087803b15801561021957600080fd5b505af115801561022d573d6000803e3d6000fd5b5050505060405180604001604052808281526020013373ffffffffffffffffffffffffffffffffffffffff168152506003600061026a600461096c565b81526020019081526020016000206000820151816000015560208201518160010160006101000a81548173ffffffffffffffffffffffffffffffffffffffff021916908373ffffffffffffffffffffffffffffffffffffffff1602179055509050503373ffffffffffffffffffffffffffffffffffffffff163073ffffffffffffffffffffffffffffffffffffffff16600160009054906101000a900473ffffffffffffffffffffffffffffffffffffffff1673ffffffffffffffffffffffffffffffffffffffff167f4546d34ba50fa70893d25ac1a7fee935f392ee488214b637211f2337e2064e3361035e600461096c565b8560405161036d929190610f51565b60405180910390a45050565b60036000858152602001908152602001600020600001543410156103d2576040517f08c379a00000000000000000000000000000000000000000000000000000000081526004016103c990610e96565b60405180910390fd5b60006003600086815260200190815260200160002060010160009054906101000a900473ffffffffffffffffffffffffffffffffffffffff169050600160009054906101000a900473ffffffffffffffffffffffffffffffffffffffff1673ffffffffffffffffffffffffffffffffffffffff1663731133e9338787866040518563ffffffff1660e01b815260040161046e9493929190610e2f565b600060405180830381600087803b15801561048857600080fd5b505af115801561049c573d6000803e3d6000fd5b5050505060008173ffffffffffffffffffffffffffffffffffffffff16606460025460646104ca91906110cf565b346104d59190611075565b6104df9190611044565b6040516104eb90610dc1565b60006040518083038185875af1925050503d8060008114610528576040519150601f19603f3d011682016040523d82523d6000602084013e61052d565b606091505b5050905080610571576040517f08c379a000000000000000000000000000000000000000000000000000000000815260040161056890610ef6565b60405180910390fd5b3373ffffffffffffffffffffffffffffffffffffffff163073ffffffffffffffffffffffffffffffffffffffff16600160009054906101000a900473ffffffffffffffffffffffffffffffffffffffff1673ffffffffffffffffffffffffffffffffffffffff167f4546d34ba50fa70893d25ac1a7fee935f392ee488214b637211f2337e2064e3389600360008c81526020019081526020016000206000015460405161061f929190610f51565b60405180910390a4505050505050565b600061063961097a565b73ffffffffffffffffffffffffffffffffffffffff16610657610835565b73ffffffffffffffffffffffffffffffffffffffff16146106ad576040517f08c379a00000000000000000000000000000000000000000000000000000000081526004016106a490610ed6565b60405180910390fd5b60004710156106f1576040517f08c379a00000000000000000000000000000000000000000000000000000000081526004016106e890610f16565b60405180910390fd5b60008273ffffffffffffffffffffffffffffffffffffffff164760405161071790610dc1565b60006040518083038185875af1925050503d8060008114610754576040519150601f19603f3d011682016040523d82523d6000602084013e610759565b606091505b505090508061079d576040517f08c379a000000000000000000000000000000000000000000000000000000000815260040161079490610ef6565b60405180910390fd5b6001915050919050565b6107af61097a565b73ffffffffffffffffffffffffffffffffffffffff166107cd610835565b73ffffffffffffffffffffffffffffffffffffffff1614610823576040517f08c379a000000000000000000000000000000000000000000000000000000000815260040161081a90610ed6565b60405180910390fd5b61082d6000610982565b565b60025481565b60008060009054906101000a900473ffffffffffffffffffffffffffffffffffffffff16905090565b61086661097a565b73ffffffffffffffffffffffffffffffffffffffff16610884610835565b73ffffffffffffffffffffffffffffffffffffffff16146108da576040517f08c379a00000000000000000000000000000000000000000000000000000000081526004016108d190610ed6565b60405180910390fd5b600073ffffffffffffffffffffffffffffffffffffffff168173ffffffffffffffffffffffffffffffffffffffff16141561094a576040517f08c379a000000000000000000000000000000000000000000000000000000000815260040161094190610eb6565b60405180910390fd5b61095381610982565b50565b6001816000016000828254019250508190555050565b600081600001549050919050565b600033905090565b60008060009054906101000a900473ffffffffffffffffffffffffffffffffffffffff169050816000806101000a81548173ffffffffffffffffffffffffffffffffffffffff021916908373ffffffffffffffffffffffffffffffffffffffff1602179055508173ffffffffffffffffffffffffffffffffffffffff168173ffffffffffffffffffffffffffffffffffffffff167f8be0079c531659141344cd1fd0a4f28419497f9722a3daafe3b4186f6b6457e060405160405180910390a35050565b6000610a59610a5484610f9f565b610f7a565b905082815260208101848484011115610a7157600080fd5b610a7c84828561114b565b509392505050565b6000610a97610a9284610fd0565b610f7a565b905082815260208101848484011115610aaf57600080fd5b610aba84828561114b565b509392505050565b600081359050610ad181611378565b92915050565b600082601f830112610ae857600080fd5b8135610af8848260208601610a46565b91505092915050565b600082601f830112610b1257600080fd5b8135610b22848260208601610a84565b91505092915050565b600081359050610b3a8161138f565b92915050565b600060208284031215610b5257600080fd5b6000610b6084828501610ac2565b91505092915050565b60008060408385031215610b7c57600080fd5b600083013567ffffffffffffffff811115610b9657600080fd5b610ba285828601610b01565b9250506020610bb385828601610b2b565b9150509250929050565b60008060008060808587031215610bd357600080fd5b6000610be187828801610b2b565b9450506020610bf287828801610b2b565b935050604085013567ffffffffffffffff811115610c0f57600080fd5b610c1b87828801610b01565b925050606085013567ffffffffffffffff811115610c3857600080fd5b610c4487828801610ad7565b91505092959194509250565b610c5981611103565b82525050565b610c6881611115565b82525050565b6000610c7982611001565b610c838185611017565b9350610c9381856020860161115a565b610c9c8161124b565b840191505092915050565b6000610cb28261100c565b610cbc8185611033565b9350610ccc81856020860161115a565b610cd58161124b565b840191505092915050565b6000610ced602d83611033565b9150610cf88261125c565b604082019050919050565b6000610d10602683611033565b9150610d1b826112ab565b604082019050919050565b6000610d33602083611033565b9150610d3e826112fa565b602082019050919050565b6000610d56601283611033565b9150610d6182611323565b602082019050919050565b6000610d79600083611028565b9150610d848261134c565b600082019050919050565b6000610d9c600f83611033565b9150610da78261134f565b602082019050919050565b610dbb81611141565b82525050565b6000610dcc82610d6c565b9150819050919050565b6000602082019050610deb6000830184610c50565b92915050565b6000606082019050610e066000830186610c50565b610e136020830185610db2565b8181036040830152610e258184610ca7565b9050949350505050565b6000608082019050610e446000830187610c50565b610e516020830186610db2565b610e5e6040830185610db2565b8181036060830152610e708184610c6e565b905095945050505050565b6000602082019050610e906000830184610c5f565b92915050565b60006020820190508181036000830152610eaf81610ce0565b9050919050565b60006020820190508181036000830152610ecf81610d03565b9050919050565b60006020820190508181036000830152610eef81610d26565b9050919050565b60006020820190508181036000830152610f0f81610d49565b9050919050565b60006020820190508181036000830152610f2f81610d8f565b9050919050565b6000602082019050610f4b6000830184610db2565b92915050565b6000604082019050610f666000830185610db2565b610f736020830184610db2565b9392505050565b6000610f84610f95565b9050610f90828261118d565b919050565b6000604051905090565b600067ffffffffffffffff821115610fba57610fb961121c565b5b610fc38261124b565b9050602081019050919050565b600067ffffffffffffffff821115610feb57610fea61121c565b5b610ff48261124b565b9050602081019050919050565b600081519050919050565b600081519050919050565b600082825260208201905092915050565b600081905092915050565b600082825260208201905092915050565b600061104f82611141565b915061105a83611141565b92508261106a576110696111ed565b5b828204905092915050565b600061108082611141565b915061108b83611141565b9250817fffffffffffffffffffffffffffffffffffffffffffffffffffffffffffffffff04831182151516156110c4576110c36111be565b5b828202905092915050565b60006110da82611141565b91506110e583611141565b9250828210156110f8576110f76111be565b5b828203905092915050565b600061110e82611121565b9050919050565b60008115159050919050565b600073ffffffffffffffffffffffffffffffffffffffff82169050919050565b6000819050919050565b82818337600083830152505050565b60005b8381101561117857808201518184015260208101905061115d565b83811115611187576000848401525b50505050565b6111968261124b565b810181811067ffffffffffffffff821117156111b5576111b461121c565b5b80604052505050565b7f4e487b7100000000000000000000000000000000000000000000000000000000600052601160045260246000fd5b7f4e487b7100000000000000000000000000000000000000000000000000000000600052601260045260246000fd5b7f4e487b7100000000000000000000000000000000000000000000000000000000600052604160045260246000fd5b6000601f19601f8301169050919050565b7f596f75206e656564206d6f72652063757272656e637920666f72206d616b652060008201527f61207472616e73616374696f6e00000000000000000000000000000000000000602082015250565b7f4f776e61626c653a206e6577206f776e657220697320746865207a65726f206160008201527f6464726573730000000000000000000000000000000000000000000000000000602082015250565b7f4f776e61626c653a2063616c6c6572206973206e6f7420746865206f776e6572600082015250565b7f5472616e73616374696f6e206661696c65640000000000000000000000000000600082015250565b50565b7f42616c616e6365206973207a65726f0000000000000000000000000000000000600082015250565b61138181611103565b811461138c57600080fd5b50565b61139881611141565b81146113a357600080fd5b5056fea264697066735822122064f382b7e858fc4fa6608c2c645468a3306f2f9ecf0e6006614f6d4fedfdfe2264736f6c63430008040033",
  "linkReferences": {},
  "deployedLinkReferences": {}
}